:020000040000FA
:06000000020CDE02032EDB
:03002B000209B314
:030033000207C100
:0300530002026F37
:03006B00020799F0
:100083000202BD0101010503010F10FEFF49250016
:100093000000007F2400000000FF000000FF0001BB
:1000A3008813D0070A010020FD000206FFFF0101AB
:1000B30000890C000000FFFFE50CE8036400640006
:1000C300B80102020000100005020701051E020527
:1000D3001E020A0A0103B80B02803E0102FEFFE87A
:1000E300030A050001AD0D010A1401E000120CEE34
:1000F300604F120CFD6012E7548066F6120BC97054
:1001030011120D7F703B090909F4F618F618F61859
:10011300F622120BDD7015120D8808080860EAE656
:10012300447FF618768018E4F618F622120D8860DC
:1001330016120D7F7012E4F608F608F608E65480EE
:10014300F609090918181822EAC0E0EBC0E0ECC070
:10015300E0EDC0E0E687F0A4FBACF008E687F0A48E
:100163002CFCE435F0FA1809E687F0A42C4B600266
:100173007401CA35F0FCE433FB09E687F0D2F7A437
:100183002CCB35F0FC1908E687F0A42BCC35F0FB1B
:10019300E433FD0819E687F0D2E7A42C4ACB35F007
:1001A300CD3400FC09E687F0D2E7A42DCC35F0FD71
:1001B300E433FA0918E687F0D2F7A42CCD35F0CA58
:1001C3003400FC08E687F0D2E7D2F7A42ACC35F056
:1001D3007A7E20E70B0ACB33CBCD33CDCC33CC3374
:1001E300CB3350147004ED30E00ED2F1E4CD3DCDAD
:1001F300CC3CCC3B5005DA05C2F1EB547FC6330847
:10020300E63392F0FBE73309E733C39A502D2B70A3
:10021300190C0D4C4D70151806E608C333700D20EC
:10022300F10AA2F013F6E418800B4024E4F630F050
:1002330002768018F618F618F68024D33B14501073
:1002430074FFA2F013F6187680E418F618F6800F00
:10025300A2F013F618E63303F618ECF618EDF6D011
:10026300E0FDD0E0FCD0E0FBD0E0FA22C0E074F285
:100273001205DEA2AFE433FED2AF85A708AFA1EF2C
:100283005508541060061218B075A1EFEF550854C5
:100293000860081218B675A1F78013EFA2E092F078
:1002A300E508A2E082F0500612197075A1FEEEF87F
:1002B300EEA2E092AF7F0102069AC0E074F212054B
:1002C300DEA2AFE433FED2AF9061A4E0F8759B00E9
:1002D300E59158540860087591F712190A8026E5CC
:1002E3009158541060087591EF1219108017E59119
:1002F300A2E092F0E8A2E082F0500A9061A4E0C28A
:10030300E0F0121A609061A3E0F8E5E95854046044
:100313000E121A3675E9FB906193E0A2E640F2EE05
:10032300F8EEA2E092AF7F0102069AC0E074F212E7
:1003330005DEA2AFE433FED2AF9061A5E0F8E5BFDE
:10034300585404600675BFFB121A78EEF8EEA2E06B
:1003530092AF7F0102069AC3E498F8E499F9120375
:100363009B8026C3E49AFAE49BFBE920E7E91203A6
:100373009BE498F8E499F922C3E498F8E499F91214
:10038300039BE498F8E499F9C3E49AFAE49BFB220B
:10039300EB20E7CFE920E7E0B90010BB0008E88ACB
:1003A300F084F8AAF022E4FBC8FA22EB70227B1057
:1003B300C833C8C933C9335007C39AC3DBF28006B5
:1003C3009A50012ADBEAC833F4C8C933F4C9FA22C4
:1003D30075F008E4C833C8C933C933C99AC99B50F7
:1003E30004C92AC93BD5F0ECFBC833F4C8E4C9FA05
:1003F3002212043420F01430E72B74FFFCFBFA7450
:100403007F8022E4FCFBFA7480801AB48008BC006D
:10041300F2BB00EF800F50EBF9E4C39AFAE49BFBC5
:10042300E49CFCE499C6CC18C6CB18C6CA18C6F916
:1004330022E4C9C608CAC608CBC6D3330308CCC650
:100443003392F0C3947F402E94184019C9B907041E
:10045300CACBCC225025C309CA33CACB33CBCC3346
:10046300CC33D9F422F4600DC9CCC313CB13CBCA5C
:1004730013CAD9F6CC22E4FCFBFA2214FCFBFA22C1
:10048300080808EAC0E0EBC0E086F0E7A4FA180920
:1004930086F0E7A42AFA180986F0E7A42AFA1809CD
:1004A30086F0E7A42AFA1986F0E7A4FBE5F02AFA16
:1004B300190886F0E7A42BFBE5F03AFA190886F051
:1004C300E7A42BFBE5F03AFA18180986F0E7A4C570
:1004D300F02BFBE43AFA1908E7C5F0C6A426F6E5C3
:1004E300F03BFBE43AFA1886F0E7A4F6E5F00826B9
:1004F300F6E43B08F6E43A08F6D0E0FBD0E0FA2253
:10050300E4CFC0E0E4CEC0E0E4CDC0E0E4CCC0E0A2
:1005130075F020E626F608E633F608E633F608E635
:1005230033F6181818EC33FCED33FDEE33FEEF33DE
:10053300FFC3EC9709ED9709EE9709EF971919197E
:10054300400FFFEC97FC09ED97FD09EE97FE191993
:1005530006D5F0BFECF709EDF709EEF709EFF71948
:100563001919D0E0FCD0E0FDD0E0FED0E0FF222559
:1005730018C582C0E0E51934FFC583C0E0E518C3A0
:10058300958224F810AF0885831985821880088521
:100593008319858218D2AFCEF0A3E520F0A37808A3
:1005A300E608F0A3DEFAEFF0A3E58124FAF8E60803
:1005B300F0A3E608F0A3E608F0A30808E608F0A312
:1005C300E608F0A315811581D0E0FED0E0F815818F
:1005D30015811581E8C0E0EEC0E022C0D02518C522
:1005E30082C0E0E51934FFC583C0E0E518C39582F6
:1005F30024F310AF08858319858218800885831931
:10060300858218D2AFC8F0A3E9F0A3EAF0A3EBF018
:10061300A37908E709F0A3D8FAECF0A3EDF0A3EE71
:10062300F0A3EFF0A3D0E0F0A3D0E0F0A3D0E0F08C
:10063300A3E520F0A3E5F0F0A322E9799EC608CA5A
:10064300C608CBC608CCC6C370207996CACBCC707B
:1006530019798ECBCC70137986CC700EF9802ACAA7
:1006630033CACB33CBCC33CC331930E7F2CCCBCA40
:100673003350147004EA30E00DE4CA3ACACB3BCBE2
:10068300CC3CCC500209C3E913C6CC182313C6CB08
:1006930018C6CA18C6F922851983851882E0C0E0F6
:1006A300A3E0F9A3E0FAA3E0FBA37808E0F608A32C
:1006B300DFFAE0FCA3E0FDA3E0FEA3E0FFA3E0C0BC
:1006C300E0A3E0C0E0A3E0F5D0A3E0F520A3E0A31E
:1006D300F5F010AF08858319858218800885831982
:1006E300858218D2AFD082D083D0E0F8D0E0321226
:1006F3000D6AB90003020731E49003017864790BB2
:100703008002F0A3D8FCD9FA7A647B0D9000867836
:100713006A79018015E493A3AD82AE838A828B83C9
:10072300F0A3AA82AB838D828E83D8E9D9E7758241
:10073300647583B77404120A787582107583227402
:1007430000120A780C75F0108E1A8F1B85821F8594
:10075300831E851882851983E0CEA3E0CF851F828F
:10076300851E83EBC9EAC8EDCBECCAC3E833C8E9FD
:1007730033C9EA33CAEB33CBC3EA9EF51DEB9FF5CE
:100783001CB35004AB1CAA1DEC33CCED33CDD5F018
:10079300DAAE1AAF1B22C0E074F21205DEA2AFE498
:1007A30033FED2AFE589A2E1500312180275890026
:1007B300C2C5EEF8EEA2E092AF7F0102069AC0E056
:1007C30074F21205DEA2AFE433FED2AFE58BA2E0F2
:1007D3005003121802758B00C2E8EEF8EEA2E09205
:1007E300AF7F0102069AD083D082ECC0E0EDC0E077
:1007F300E493A3FCE493A3FDED4C600D1208C1EC5C
:1008030024FFFCED34FFFD80EFE493A3FCE493A30A
:10081300FDED4C600D12095EEC24FFFCED34FFFD91
:1008230080EFD0E0FDD0E0FCE493A3C0E0E493C00C
:10083300E022851983851882E0A3FEE0A3F52078E2
:1008430008E0A3F608DFFAE0A3FFE0A3C0E0E0A31B
:10085300C0E0E0A3C0E0E0A3C0E0E0A3C0E010AFCD
:10086300088582188583198008858218858319D2A3
:10087300AFD083D082020A7ED083D082E9C0E0E485
:1008830093A3C386F0C5F095F0F908E493A386F02B
:10089300C5F095F0700BE493A3C3994005E9048078
:1008A30002A3E475F002A42582F582E5F03583F511
:1008B30083D0E0F9E493A3C0E0E493C0E022C0E076
:1008C300C3E49396087401939618400FE4936670FB
:1008D3000808740193661870007019A3A3C3E49306
:1008E30096087401939618A3A3400DD0E0D0E0D0EE
:1008F300E0020825A3A3A3A3A3A3D0E0227404804A
:100903000474028000CCC0E0EDC0E0E518C39CCCC9
:10091300AD1950011D10AF068C188D1980068C1867
:100923008D19D2AF1209FAD0E0FDD0E0FC22740297
:100933008000CCC0E0EDC0E0E518C39CCCAD1950FD
:10094300011D10AF068C188D1980068C188D19D2D5
:10095300AF1209D8D0E0FDD0E0FC22C0E0C0F0889F
:10096300F0E4936670080874019366187000A8F0A9
:10097300A3A3700BD0F0D0E0D0E0D0E0020825A311
:10098300A3D0F0D0E022D083D082CCC0E0E493A304
:100993006006120A1B1470FAE493A36006120B603C
:1009A3001470FAD0E0FCE493A3C0E0E493C0E02227
:1009B300C0E0C0D0E8C0E0E9C0E0A2AFE433F8D2C1
:1009C300AFC2C7E8F9E8A2E092AFD0E0F9D0E0F80F
:1009D300D0D0D0E032CAC0E0E493A3C582CCC582B4
:1009E300C583CDC583F0A3C582CCC582C583CDC5E0
:1009F30083DAE5D0E0CA22CAC0E0E0A3C582CCC551
:100A030082C583CDC583F0A3C582CCC582C583CD02
:100A1300C583DAE6D0E0CA22C0E0E493A3D39C50B6
:100A230010E493A3C39C400AD0E0D0E0D0E00209D5
:100A3300A6A3A3A3D0E022C008C3E096F50808A3A9
:100A4300E096420808A3E096420808A3E09645080A
:100A53007001D3D0082270090808082260161818FC
:100A630018C6C333C608C633C608C633C608C6335A
:100A7300C6D5E0EA22C09FF59FE473D09F22D083BE
:100A8300D082C09FE493C0E0740193C0E0740293EA
:100A9300F59F222518F58210AF08F518400C15199B
:100AA3008008F51840021519D2AF85198322740402
:100AB300800A74038006740280027401C0E0F404A7
:100AC300120A96D0E0120D392200C0D0251810AFBB
:100AD30008F518500C05198008F51850020519D2AD
:100AE300AFD0D022BB0102E722C082C08389828AB1
:100AF30083BB0003E08002E493D083D0822260169C
:100B0300080808C6C313C618C613C618C613C618E2
:100B1300C613C6D5E0EA222518F8E43519F92225CB
:100B230018FAE43519FB222518FCE43519FD22C314
:100B3300E0C696F608A3E0C696F608A3E0C696F6C6
:100B430008A3E0C696F622251810AF08F518400C46
:100B530015198008F51840021519D2AF22C0E0E438
:100B630093A36C7009D0E0D0E0D0E00209A6A3A360
:100B7300D0E022E066701008A3E066700A08A3E0E4
:100B830066700408A3E06622E76670100809E7664A
:100B9300700A0809E76670040809E76622C3E0964D
:100BA30008A3E09608A3E09608A3E096A2D265D036
:100BB3003322C3E697F60809E697F60809E697F69F
:100BC3000809E697F622181818E60846087009E699
:100BD30026087005E633F4220822191919E7094794
:100BE300097009E727097005E733F4220922C3E0F6
:100BF30096F008A3E096F008A3E096F008A3E09629
:100C0300F022E026F008A3E036F008A3E036F0086F
:100C1300A3E036F022E026F608A3E036F608A3E0C8
:100C230036F608A3E036F622E627F60809E637F695
:100C33000809E637F60809E637F622700422600D44
:100C430018C6C333C608C633C6D5E0F41822E64730
:100C5300F60809E647F60809E647F60809E647F6FF
:100C630022E657F60809E657F60809E657F6080993
:100C7300E657F622E056F608A3E056F608A3E05638
:100C8300F608A3E056F622E056F008A3E056F00873
:100C9300A3E056F008A3E056F022E4C396F608E476
:100CA30096F608E496F608E496F622C3E09608A3BF
:100CB300E09608A3E09608A3E09622C6F4C608C609
:100CC300F4C608C6F4C608C6F4C622C3E7960809E4
:100CD300E7960809E7960809E7962275D00075811B
:100CE3003F751801751903000206F2E6084608C3AA
:100CF300134608336002E633F422E7094709C313B6
:100D03004709336002E733F422600C08C6C313C6F5
:100D130018C613C6D5E0F422E6F008A3E6F008A34C
:100D2300E6F008A3E6F022E0F608A3E0F608A3E065
:100D3300F608A3E0F622CAC0E0E6F0A308DAFAD088
:100D4300E0FA22E0FAA3E0FBA3E0FCA3E0FD22E843
:100D5300F0A3E9F0A3EAF0A3EBF022E0F8A3E0F9B3
:100D6300A3E0FAA3E0FB22E5C754F84401F5C779F1
:100D730001222518F582E43519F58322E72719475F
:100D83001947194722E62618461846184622C2AFC5
:100D930075D69F02000022120A81402E00120A819A
:100DA3005C2E00120A818E2E00120A813630001248
:100DB3000A810D3100120A81393100120A816D3125
:100DC30000120A818E3100120A819D3100120A81BC
:100DD300A83100120A815C3200120A81CF3200125C
:100DE3000A81413300120A81493300120A816C34AB
:100DF30000120A819F3400120A81613500120A81B0
:100E0300103600120A81583600120A81BA360012CF
:100E13000A81DF3600120A81F03600120A81683730
:100E230000120A81F03700120A81543800120A8135
:100E3300393900120A815E3900120A817F3A0012A1
:100E43000A81923A00120A81053B00120A81533B40
:100E530000120A815C3B00120A815C3D00120A8188
:100E6300A63E00120A81B63E00120A812F3F0012ED
:100E73000A81763F00120A814A4100120A81AF4378
:100E830000120A81C34300120A81CD4300120A8172
:100E9300D74300120A81E14300120A81EB43001297
:100EA3000A81044400120A810E4400120A81184484
:100EB30000120A81224400120A814A4400120A8164
:100EC300554400120A819F4400120A81A94400126A
:100ED3000A81B44400120A81D84400120A81FC44F6
:100EE30000120A815D4500120A81A84500120A8199
:100EF300C44500120A812E4600120A817A46001266
:100F03000A81C24600120A813D4700120A81D7476F
:100F130000120A819B4900120A81094A00120A81C0
:100F23003B4B00120A81614B00120A81D14C001223
:100F33000A81855000120A81855200120A815D548C
:100F430000120A81F65400120A81085700120A811E
:100F5300CA5700120A81165800120A817C580012DF
:100F63000A818E5800120A81DE5A00120A810B5C34
:100F730000120A815D5C00120A81025D00120A817F
:100F8300BD5E00120A81EE5F00120A810C6000123E
:100F93000A81616000120A815F6100120A81876120
:100FA30000120A81EA6100120A81EB6200120A81CF
:100FB3005E6300120A818C6400120A81F7640012D6
:100FC3000A81E76500120A814D6800120A817B6875
:100FD30000120A81766900120A81146B00120A81D9
:100FE300646B00120A811C6C00120A81D16C00121E
:100FF3000A81356D00120A81EE6D00120A818E6E30
:1010030000120A81F26E00120A813C6F00120A81FB
:10101300796F00120A81E17000120A819080011237
:101023000A81C88001120A81A18301120A81E78320
:1010330001120A81048501120A81698501120A815C
:10104300BA8601120A81AB8901120A81CA8A011286
:101053000A819F9501120A81409601120A813399F0
:1010630001120A81339A01120A81A99A01120A8193
:10107300E69B01120A81369D01120A811D9E01120F
:101083000A8186A001120A8194A201120A8121A376
:1010930001120A81F5A301120A8181A401120A81B6
:1010A3008BA401120A81B4A401120A8161A5011261
:1010B3000A814CA601120A8124A701120A8188A77A
:1010C30001120A81B1A701120A81DEA701120A8166
:1010D3002FAA01120A810AAB01120A814EAB011237
:1010E3000A81BFAB01120A8178AC01120A81AAAC52
:1010F30001120A81F1AC01120A8124AD01120A81A5
:1011030089AD01120A81D8AD01120A81DDAD011248
:101113000A8131AE01120A817BAE01120A8177AFD7
:1011230001120A81DCAF01120A8143B001120A8164
:1011330068B301120A813CB401120A81A6B50112F7
:101143000A8180B801120A8128B901120A814FBBB2
:1011530001120A81F4BB01120A8132BC01120A8115
:101163000BBE01120A811EBE01120A8127BE0112A3
:101173000A8130BE01120A8145BE01120A8164BE92
:1011830001120A8143C001120A8196C001120A8129
:10119300A0C001120A81C1C001120A8110C201124A
:1011A3000A8159C201120A8139C301120A8164C436
:1011B30001120A811AC501120A811CC601120A8191
:1011C3001EC701120A8104C801120A811BC8011239
:1011D3000A8158C801120A8162C801120A816DC8C6
:1011E30001120A818BC801120A81CDC801120A813A
:1011F3002BC901120A8150C901120A816AC901125D
:101203000A81F7C901120A8130CA01120A817ECB11
:1012130001120A81D0CB01120A81EACC01120A81A0
:1012230011CD01120A81ADCD01120A8129CE01121D
:101233000A8175CF01120A8190D001120A8156D119
:1012430001120A8100D201120A8185D201120A8198
:10125300EDD201120A81A2D301120A81F4D3011241
:101263000A815AD401120A8123D501120A8146D573
:1012730001120A81FED501120A8122D601120A81C6
:1012830044D601120A81A5D601120A81F0D80112AF
:101293000A81CBD901120A8175DA01120A81B6DCFF
:1012A30001120A8104DD01120A8147DD01120A815C
:1012B3009FDD01120A81FDDD01120A8127DE011281
:1012C3000A814BDE01120A817CDE01120A81A6DE4D
:1012D30001120A81EDDE01120A8141DF01120A8146
:1012E3009DDF01120A819EE001120A8108E20112C8
:1012F3000A8146E201120A816FE201120A8100E3C8
:1013030001120A814AE301120A816EE301120A8182
:10131300C1E301120A81DCE301120A8197E401129D
:101323000A81C1E401120A8117E501120A8123E847
:1013330001120A8156E801120A8113E901120A8196
:10134300EEE901120A817EEA01120A81BFEA011263
:101353000A81CBC804120A810AC904120A814D808A
:1013630002120A81F68002120A81D58102120A81D1
:10137300F08202120A81108302120A81328402125D
:101383000A81CF8502120A813C8602120A811287E2
:1013930002120A81188802120A817D8802120A81C8
:1013A300B98802120A81128902120A814B89021238
:1013B3000A81948902120A81268A02120A81C38A47
:1013C30002120A81988B02120A81658C02120A8129
:1013D300F28C02120A81188D02120A81458D0212C3
:1013E3000A81768D02120A814B8E02120A815B8E6C
:1013F30002120A81AE8E02120A81BB8E02120A8188
:10140300C88E02120A81D18E02120A81358F02120E
:101413000A81938F02120A81DE8F02120A81F98FE9
:1014230002120A81209002120A813D9002120A815F
:10143300499002120A81ED9102120A810692021268
:101443000A81829202120A81959202120A81A5925E
:1014530002120A814B9302120A81BB9402120A817F
:10146300CE9502120A816E9602120A8178960212B2
:101473000A81E69602120A81F79602120A813697CA
:1014830002120A81649702120A81319802120A81B8
:10149300889802120A81CD9802120A8123990212B6
:1014A3000A81419902120A818F9902120A815D9A77
:1014B30002120A81AB9A02120A81ED9A02120A8180
:1014C300709B02120A819A9B02120A81D09B02121C
:1014D3000A81DF9B02120A813D9C02120A81B59C9C
:1014E30002120A81F69C02120A81459D02120A81A8
:1014F300709D02120A818A9D02120A81A49D021222
:101503000A81799E02120A81839E02120A81BE9E7B
:1015130002120A81CE9E02120A811F9F02120A81C1
:10152300339F02120A8151A002120A8166A002129D
:101533000A8100A102120A817FA102120A8122A25A
:1015430002120A812DA202120A817AA302120A81CF
:1015530096A302120A81EEA302120A815CA402126C
:101563000A81A8A402120A81C2A402120A8122A536
:1015730002120A81C0A502120A810BA602120A8175
:101583006EA802120A8106A902120A817DA902121B
:101593000A81C3AB02120A81DBAB02120A81DEAB02
:1015A30002120A81EAAB02120A81FEAB02120A811D
:1015B30006AC02120A813DAC02120A8131AD02125D
:1015C3000A81BBAD02120A813DAE02120A81B2AE9C
:1015D30002120A818AAF02120A81ACAF02120A8197
:1015E30043B002120A814FB002120A81ACB0021258
:1015F3000A81AFB002120A811EB102120A816AB2D5
:1016030002120A817DB302120A8108B402120A810E
:101613001BB502120A81E5B502120A8116B602123F
:101623000A813CB602120A8145B602120A8174B6D7
:1016330002120A8124B702120A81D4B702120A8164
:1016430047B802120A81F9B802120A816CB9021270
:101653000A81ABB902120A81F4B902120A815471E8
:1016630000120A81F27100120A81417200120A818A
:10167300B67200120A81527300120A813376001285
:101683000A81AE7800120A81C47C00120A81F87CB8
:1016930000120A81267D00120A81AA7D00120A81A6
:1016A300F27D00120A811B7E00120A81617E001204
:1016B3000A818C7E00120A81D77E00120A8180EB98
:1016C30001120A8108EC01120A8172EC01120A81EB
:1016D300E6EC01120A81AEEF01120A81CAEF011290
:1016E3000A8123F001120A8112F101120A817CF1AD
:1016F30001120A812BF301120A8186F401120A8175
:10170300EEF401120A81D32700120A8133F6011283
:101713000A818DF601120A81D7F601120A81D6F8E1
:1017230001120A81F4F901120A811AFB01120A81DA
:1017330027FC01120A8195FC01120A81EFFC0112B8
:101743000A8129FD01120A81C7FD01120A818EFE59
:1017530001120A814E7F00120A812AFC02120A81B9
:1017630097FC02120A81E7FC02120A8147FD02126A
:101773000A81D5FD02120A81FA2D00120A814BFE5D
:1017830002120A814EFE02120A8151FE02120A81DE
:1017930005FF02120A8176FF02120A8193FF0312E8
:1017A3000A81A4FF03120A81E5FF03120A8181BDA6
:1017B30004120A818FBD04120A8190C904120A819E
:1017C30090C604120A81A0C604120A81BAC6041282
:1017D3000A814EC704120A81E7FC03120A8182FDC3
:1017E30003120A8178FF03120A8110C404120A81CA
:1017F30043C404120A81B4C404120A81C8C4041283
:101803000A8115C504120A8145A104120A815EA149
:1018130004120A81F0A104120A81EEA204120A81C1
:10182300DFA404120A8158C904120A810080041239
:101833000A813A8004120A81C98104120A8128822A
:1018430004120A81548204120A816D8204120A81ED
:101853008B8204120A81678304120A81938404121F
:101863000A815B8504120A81688604120A819A86BA
:1018730004120A81C58604120A81F08604120A81C1
:101883001B8704120A81F0C004120A8119C10412D1
:101893000A812DC104120A8177C104120A81B6C1DB
:1018A30004120A81F5C104120A8158C204120A8182
:1018B3005BC204120A8169C204120A817AC2041249
:1018C3000A815DAC04120A8197AC04120A81F4AC5C
:1018D30004120A8122AD04120A816FAD04120A8137
:1018E300ADAD04120A81E8AD04120A8112AE0412EE
:1018F3000A8138AE04120A819BAE04120A81C9AE72
:1019030004120A815CAF04120A8174AF04120A81C3
:1019130089AF04120A8114C904120A8131C904125D
:101923000A8155C904120A816E8D04120A81028F3D
:1019330004120A81108F04120A812C8F04120A8167
:10194300518F04120A81AE8F04120A810A90041285
:101953000A819F9004120A81249104120A81B5918D
:1019630004120A81A79204120A81BB9204120A810B
:10197300CE9204120A81F09204120A8151C7041212
:101983000A8182C704120A81B3C704120A81E0C71D
:1019930004120A813FA504120A81AEA504120A812A
:1019A300D3A504120A8176A604120A81D4A80412CC
:1019B3000A81F7A804120A8109A904120A8117A946
:1019C30004120A8140A904120A8158A904120A8147
:1019D30070A904120A8188A904120A8134AA041284
:1019E3000A81B1AA04120A81E5AA04120A813AAB58
:1019F30004120A818FAB04120A81BDAB04120A815F
:101A0300CBAB04120A81E2AB04120A814CAC041280
:101A13000A8111C804120A81E7DC03120A8130DD4E
:101A230003120A815CDD03120A8175DD03120A8148
:101A330095DD03120A81FFDD03120A8139DE0312E9
:101A43000A8180E303120A8149E503120A818FE5C3
:101A530003120A81FCE503120A81AAE703120A8131
:101A6300DAE703120A81F4E703120A8108E8031292
:101A73000A815CE803120A81BFE803120A81D4E8F1
:101A830003120A818BC204120A81A2C204120A81C0
:101A9300CBC204120A81F1C204120A811EC30412CA
:101AA3000A814EC304120A816FC304120A81A6C3BA
:101AB30004120A81CEC304120A8180C804120A8167
:101AC300FF9C04120A81169D04120A81809E04124F
:101AD3000A81B59E04120A81DD9E04120A810A9FBF
:101AE30004120A81239F04120A81649F04120A814B
:101AF300E29F04120A812EA004120A8182A004121A
:101B03000A81B9A004120A81EBA004120A81AABBBC
:101B130004120A81E9BB04120A811ABD04120A8164
:101B23001DBD04120A8112FF01120A813BFF01123B
:101B33000A815BFF01120A817BFF01120A81D3FF35
:101B430001120A81E9FF01120A81DCF303120A81FF
:101B530022F403120A819EF403120A81BFF40312D2
:101B63000A81E3F503120A81F1F503120A814DF6A6
:101B730003120A8180F603120A8193F603120A8183
:101B83001EF703120A81B7F703120A8105F803123D
:101B93000A8182F803120A81EEF803120A8127F9F7
:101BA30003120A81AFF903120A8135FA03120A817B
:101BB3008CFA03120A81E9FA03120A81FBFA03126F
:101BC3000A810DFB03120A8133FB03120A813CFBDA
:101BD30003120A817FFC03120A8154BF04120A8193
:101BE30063C004120A81C1AF04120A8106B0041251
:101BF3000A8153B004120A81F0B104120A811CE174
:101C030002120A81D2E202120A8121E302120A813C
:101C130090E502120A81F5E502120A81F5E8021243
:101C23000A8157E902120A818BEB02120A8177ECCF
:101C330002120A81DAEC02120A8172ED02120A819F
:101C430015EE02120A8160EE02120A81A8EE021258
:101C53000A81F7EE02120A81C5F002120A817DF2AF
:101C630002120A814BF502120A818DF502120A81D2
:101C7300E9F502120A81F8F502120A8160F60212EE
:101C83000A8110F702120A81EEFA02120A81B5FBE9
:101C930002120A81D1FF02120A81ECFF02120A81A9
:101CA300299304120A81499304120A813994041274
:101CB3000A81829404120A81A29404120A81E09494
:101CC30004120A813B9504120A81799504120A8150
:101CD300C39504120A816B9804120A8153C5041236
:101CE3000A81DAC504120A812BC604120A816EC660
:101CF30004120A810EE903120A8114E903120A810C
:101D030071E903120A81E0EB03120A816DEC0312FD
:101D13000A813AED03120A817DED03120A81AEEDC9
:101D230003120A81C2EE03120A81D3EE03120A815F
:101D3300E8EE03120A81F9EE03120A8107EF031298
:101D43000A8118EF03120A813BEF03120A81B5F1EE
:101D530003120A81CDF203120A818CF303120A8162
:101D63000CA603120A8176A603120A8187A6031220
:101D73000A81ECA703120A81B4A803120A811AA9E3
:101D830003120A8197A903120A819AA903120A81ED
:101D9300BBA903120A81A9AC03120A8101AE031283
:101DA3000A8167AE03120A81D2B003120A810EB10F
:101DB30003120A8163B103120A81A8B103120A81D3
:101DC300DFB103120A811CB203120A8134B2031277
:101DD3000A8120B303120A817EB303120A81DAB3A4
:101DE30003120A8153B503120A819AB503120A81B9
:101DF300FCB803120A8143B903120A81ABBA031276
:101E03000A81EABA03120A817BBB03120A818BBBE4
:101E130003120A81DFBB03120A8170BC03120A8119
:101E2300AABD03120A81ECBD03120A81FABD031293
:101E33000A810FBE03120A8112BE03120A81A1BED8
:101E430003120A81DEBE03120A8115BF03120A813F
:101E53005DBF03120A8160BF03120A816ABF0312C6
:101E63000A81BEBF03120A81FEBF03120A8125C085
:101E730003120A8187C003120A8101C103120A8176
:101E83003FC303120A81B5B904120A81C6B9041209
:101E93000A81A9BA04120A81F97F00120A8129BAB8
:101EA30002120A814CBA02120A8160BA02120A8132
:101EB300F2BB02120A816FBC02120A81F8BC021241
:101EC3000A81D1BD02120A8163BE02120A8113BFC5
:101ED30002120A81C3BF02120A81C2C002120A811E
:101EE30087C102120A81ECC102120A817FC8021261
:101EF3000A815BCB02120A8197CB02120A819ACB29
:101F030002120A8129CE02120A81E8D202120A8140
:101F130049D402120A814AD602120A81B8DA02129D
:101F23000A81CDDA02120A814CDD02120A8156DEE1
:101F330002120A81DCDF02120A81A3E002120A8183
:101F430076C503120A8148C603120A81CDC603125D
:101F53000A818CC703120A812EC803120A81AACAF6
:101F630003120A8140CB03120A8178CF03120A813C
:101F73009FD103120A818AD203120A811AD603124D
:101F83000A8112D703120A81A3D703120A8123D924
:101F930003120A81D1D903120A8135DB03120A81A4
:101FA300F3B404120A815CB504120A81AAB50412BF
:101FB3000A8142B604120A8189B604120A8113B750
:101FC30004120A8143B704120A8151B704120A8129
:101FD3005FB704120A8161B204120A81D9B20412F2
:101FE3000A810DB304120A81F0B304120A815EB4AC
:101FF30004120A817C9804120A819E9804120A81B1
:10200300FB9804120A811C9904120A81489904124C
:102013000A81679904120A81849904120A81A39997
:1020230004120A81AF9A04120A81FB9A04120A81EC
:102033000B9B04120A81389C04120A81489C0412E7
:102043000A81569C04120A81649C04120A81779CBB
:1020530004120A81468704120A81C88C04120A8179
:10206300E88C04120A81ED8C04120A81E4B704128D
:102073000A81FCB704120A81B2B904120A81CD7F26
:1020830000120A81792700120A81DBA503120A8153
:10209300BDA503120A81FAA403120A8167A40312DD
:1020A3000A8112A303120A8185A003120A8107A0E1
:1020B30003120A81C09F03120A812D2D00120A8187
:1020C300C82C00120A81089C03120A81D89B0312B0
:1020D3000A81002C00120A81542B00120A81A59B4D
:1020E30003120A81919B03120A819F9A03120A81A8
:1020F3001D9A03120A81BE9903120A812F980312B3
:102103000A81BD9703120A81BA9703120A81B7960F
:1021130003120A81919603120A81CD9503120A8153
:10212300179403120A81B79303120A818893031247
:102133000A81859303120A81709303120A813093F3
:1021430003120A81052B00120A81DC2A00120A817C
:102153008D2A00120A814F2A00120A812A2A0012AC
:102163000A81112A00120A81209303120A812A92FA
:1021730003120A81E99103120A81822900120A815A
:10218300AF9103120A81549103120A81239103121E
:102193000A81EC8D03120A81C62800120A81FE8C83
:1021A30003120A8148FE02120A81B88B03120A81C4
:1021B300698B03120A815D8B03120A81C48A03129D
:1021C3000A81928903120A81ED8603120A8190849F
:1021D30003120A81448403120A81298303120A81A8
:1021E300BE8203120A81E88103120A81A4810312C9
:1021F3000A816B8003120A81328003120A813D280F
:1022030000120A81008003120A8161F501000000B7
:1022130080FBE4738F0001005A0D87000100C80D95
:10222300240002009B0D250002009D0D26000200E4
:102233009F0D27000200A10D28000100A30D290016
:102243000100A40D84000400A50D86000100A90D62
:102253002A000100AA0D2B000100AB0D2C00010088
:10226300AE0D2D000800420D2E000100AF0D2F0012
:102273000100B00D30000100B10D31000100B20DBD
:10228300320001004A0D330001004B0D3400010000
:10229300B30D360001004C0D38000100B40D3900B8
:1022A3000100AD0D83000200C60D63000100570D50
:1022B30064000100390D65000100AC0D6D000100E3
:1022C300580D710008003A0D66000100C50D43006A
:1022D3000100B60D44000200B70D45000100B90D21
:1022E30046000200BA0D470008004F0D48000100E8
:1022F300BC0D4B000100BD0D04000100C90DA10080
:102303000100CC0D37000100CB0D88000100CA0D80
:102313003C0001004D0D3D000100B50D49000200D8
:10232300BE0D67000100590D4D000200C00D4E00A7
:102333000100C20D4F000200C30D3E0001004E0D0F
:102343000000000000000001363601010001020117
:102353000001030100010401060605020000070154
:1023630000340801000F090401010D0100FF0E08EC
:10237300000017020000190100FF1A0100011B01F0
:1023830000FE1C0100081D0200001F0100012001C6
:102393000001210200002301000F24020000260196
:1023A300000127010008280200FF2A0100072B0172
:1023B30002402C0100002D0100012E0100012F011C
:1023C30000FF30010B1C310800003A0100083B01FB
:1023D300000F3C0100013D0100FF3E0400004204E8
:1023E3000000460400004A0400004E0400005204AA
:1023F3000000560400005A0400005E20FFFF360070
:102403000100060000000F000000000000000000B3
:102413000000000003FFFF00000403FFFF0000FFB4
:10242300FF0FF4010005C4040320000100000B00AA
:102433000000000000000003010F00000000000086
:102443000000000000000000000000000000000089
:102453000000000000000000000000000000000079
:102463000000000000000000000000000000000069
:1024730000000000000000000000000001037103E1
:102483000103010301030103010322030203010307
:102493001003000300030003000300030003000311
:1024A300420300032403060300030003040312038F
:1024B3002503230325032303040304030003000369
:1024C3000003440300030003230300036503210007
:1024D3003503810300030503000300030003000326
:1024E300250323030304710402046004110470042C
:1024F300020402040104020410046104000414042D
:1025030063047304720462044304000413040604A2
:102513000004000404041204000400040004000482
:102523005104640000040004000444040004000493
:1025330000040004650400043504810464000504F8
:1025430000048304000403007100300160001100E3
:10255300700031022003500480001000610000006D
:102563001400630073007200620043000000130054
:10257300060000000000040012000000000000003C
:10258300000004000400370037003C024400000050
:10259300000000000000650000003500810000001D
:1025A3000500000083000000010171010101010128
:1025B30011010101310101010101800110016101DA
:1025C3003B001400630173017201620143010001C6
:1025D300130106013D013500040112010001000150
:1025E3000001000104010401330133013C014401F2
:1025F300320136000001000165010001350081014F
:10260300000105018201830100010302710230010F
:102613006002110270020102020202028002100231
:1026230061023A00410063027302720262024302D2
:102633000002130238000002000204021202000228
:1026430000020002000204020402370037003C02C9
:102653004402000239000002000265020002350252
:102663008102000205028202830200020158100661
:102673008E100888100BA61010CE0F025E10057C7A
:10268300100764100C40100D4C1064060EFF000080
:102693000000641F1300FE1E0100641F0200C81E19
:1026A3000300CE1E0400D41E0500DA1E0600E61E3B
:1026B300FFFF000007ECFDFDFDECDCDCCCBCACACAB
:1026C3009C9C8C7C7C6C6C5C5C5C4C4C3C3C2C2CF7
:1026D3001C1C03EAF5E5D5D5C5B5A5959585857586
:1026E300756565555545453535252515150500167B
:1026F3000F00000B150B020002220F3300000E0C1B
:102703000E020B040B0A0708000F00011916181616
:10271300161823030000034A49434E181A250502DD
:10272300303017181921301B1D1F3000393D3F373A
:102733003C3C362C442D303016181920231A1C1E0D
:102743003002040201010101090200BE040A7F00F4
:102753003C000E0000000000E8033C0008100C0AD7
:102763001503090900040003FF1E1E01050C0504DF
:10277300040800080328C082C0837900EA12297E76
:102783003BF583C082C083900338126E84D083D01C
:1027930082C3E09CA3E09D500CEA240B1227CB12CA
:1027A30027AB600109023F6AEA75F00BA4FAA8F0AF
:1027B30075F00BEBA428FB90033AE02AF8A3E03B67
:1027C3008882F583E0540F22F582E43B12507D2288
:1027D30074F71205728908124716A3E0F9E875F039
:1027E3000BA4F8ACF075F00BE9A42C1229F9E8FE60
:1027F300E9FF7401650860067402650870228A8225
:102803008B83122D25740265087021EA2403FA5084
:10281300010B12215CE970148E828F83E4F0800C2B
:10282300EA2403FCE43B122D1C1221628E828F8367
:10283300E0D2E7F0121E320243BE74F412057212A4
:102843002DDF79008E828F83E06075890A890B8082
:1028530064E50A75F00BA4FAA8F075F00BE50B120A
:1028630027B77049E50A75F00BA4F8AAF075F00BC9
:10287300E50B1229DA8E828F83E08508828509832E
:10288300123F1E122C9CEE2403FCE43F122971120A
:102893002162124551125AAE1237E7D2E7F0121EE7
:1028A300327901900338E0F50AA3E0F50B050AE558
:1028B3000A7002050B122BF8E50A9AE50B9B40916F
:1028C300024A0474F5120572EAFEEBFF750A0174FD
:1028D3000B120D751233C9EC4D6015EC12297E3DB8
:1028E300122DED7901121706E5084509607580235D
:1028F300E5084509604412297C3509122DED12299A
:102903007212215CE96401701BEEFAEFFB1221FEE7
:10291300E9F50A850882850983122C947902AA08AD
:10292300AB098011122D1D12215CE9640170347909
:1029330003EEFAEFFB12170680298E828F83A3E042
:1029430064FE7003A3E0F4700B122D1D12215CE9E9
:102953006401700CEEFAEFFB1221FEE9F50A800325
:10296300750A00023255E50A2403FCE4350BFDE544
:10297300082403FAE43509FB22E508125EB3227446
:10298300F712057290033812466EEA4B602FEA7510
:10299300F00BA4FAA8F075F00BEBA428FBEAFEEB0E
:1029A300FF121BF290033A12466E90033A125068DC
:1029B3006012EEFCEFFD7900121B56800790033A7C
:1029C300E4F0A3F00243BEF9023168E875F00BA40A
:1029D300F8AAF075F00BE9A42AF990033AE028F578
:1029E30008A3E039F50922F9E875F00BA4F8AAF079
:1029F30075F00BE9A42AF990033AE028F8A3E0392B
:102A0300F9229003381243A5C3EE98EF9922C082AE
:102A1300C083EC4D6005121CEE80097C087D0079B3
:102A230000121B56023F6A74F61205727900EA4BD4
:102A330060177800EA28F582E41257C5600479012B
:102A4300780808E8C3940840EB02316874F712056C
:102A53007274F3120B4AECFEEDFF8518828519831D
:102A6300E4F004120D75EAF0A3EB1243971220D899
:102A73007403120D75AC82AD83EEFAEFFB12216283
:102A8300EEFAEFFB12215C0243B974F7120572747C
:102A9300F3120B4AECFEEDFF851882851983E4F0EF
:102AA300EAFCEBFD7403120D75AA82AB831221625B
:102AB300AA18AB191220D27401120D75123F2B8E76
:102AC300828F8312438874FE68700374FF69600405
:102AD3007901800279000243B974F7120572EAFEA4
:102AE300EBFF122084E9F508740165087011122BBD
:102AF30045F4FA88828983E05A4480F0121E320238
:102B0300375C74F7120572EAFEEBFF7508008E82DC
:102B13008F83E0602A122084E9F508740165087048
:102B23001E122B45FA88828983E05A70128E828F97
:102B330083E04480FA88828983E04AF0121E3202DD
:102B4300375C1245551239341229EA8E828F83E09D
:102B53002274F41205728A088B097C007D00EA1244
:102B63002974122162E508122CB679008508828542
:102B73000983A3E064FE7003A3E0F460757E007F25
:102B8300008066EEFAEFFB1227AB6058EEFAEFFB1C
:102B9300EA75F00BA4FAA8F075F00BEBA428FB90F0
:102BA300033AE02AF50AA3E03BF50B850882850981
:102BB30083A31257A0850A82850B83A3E06A70035F
:102BC300A3E06B701FE50A2403FAE4350BFB122123
:102BD3005CE964017006122969122162122CAB7937
:102BE30001126CB80EEE70010F122BF8EE9AEF9BE8
:102BF3004091024A0490033812507FC32274F312A7
:102C030005728A088B098A828B83122C94EA122C10
:102C1300B6750C00EA12297412215CE96401706A2A
:102C23007E007F00805FEEF8EFF9E875F00BA4F803
:102C3300AAF075F00BE9A42AF990033A126D2AE081
:102C4300540F603CEEF8EFF9E875F00BA4F8AAF026
:102C530075F00BE9A42AF990033AE028F50AA3E0FA
:102C630039F50B122969121CE8E964017012850A0F
:102C730082850B83122C9C122CAB750C01126CB841
:102C83000EEE70010F122A05409CA90C7F05020865
:102C930035A374FEF0A304F022A31243A585088292
:102CA300850983A3123D5622E508122CC0EEF0A33A
:102CB300EFF022122CC074FEF0A304F022125EB7D0
:102CC3003509F5832274F5120572EAFEEBFF8E8255
:102CD3008F83122C947C007D00122D1D122162EE35
:102CE300FAEFFB122084E9F50A7401650A702712D2
:102CF300439E1229CE850882F583122D251229724F
:102D030012215CE96401700EE5082403FCE4350933
:102D1300122D1C122162023255FDEE2403FAE43F08
:102D2300FB22A31257AA123D562274F212057274A3
:102D3300E6120B4A122DDF750C01750800750900A8
:102D4300750A00750B00851882851983E4F0EE245B
:102D530003FCE43FFD7403120D75AA82AB831221B9
:102D630062AA18AB191220D2E96401701F740B1206
:102D73000D75122DEF7401120D751257A47003A374
:102D8300E069604AA818A91988088909740D120D09
:102D930075123F1DA3123F2B740E120D751243883B
:102DA300740D120B221220D8E964017009740D12FC
:102DB3000B1A880A890B780A120AB9AC08AD09EE16
:102DC300FAEFFB1221987402120ACCE9F50CEEFA21
:102DD300EFFB122144A90C741A025700EAFEEBFF21
:102DE30012455574FEF0A304F022F583123934F929
:102DF300124555123D5622C082C083780079008067
:102E03000508E8700109122BF8E89AE99B5029E8B4
:102E1300FAE9FBEA75F00BA4FAACF075F00BEBA43E
:102E23002CFB90033AE02AFCA3E03B8C82F583E081
:102E3300540F70CD790080027901023F6AC082C0CD
:102E430083902763E49375F016A4FCADF079FF7AC1
:102E5300587B06121B56023F6A74F6120572EAF893
:102E63007508007D008012ED1257B7C3994009E041
:102E7300FAE8C39A400205080D902763E493FAED3C
:102E8300C39A40E3AA087B0002316874F01205720A
:102E930074F3120B4A8A0C8B0D8C088D09890AEC8A
:102EA30045096016AA08AB09120DCA8A0E8B0FAE2C
:102EB3000EAF0FEE4F6003022F817B0080010B12D8
:102EC3005AA4500F12302970F5745828FE7406392D
:102ED300FF80047E007F00EE4F7003022FD5902702
:102EE30059122FFC60217403650A60067404650A95
:102EF30070157A047903120DA0902763E493FC9074
:102F030027591230025029902757122FFC6028743A
:102F130001650A60067402650A701C7A027901125F
:102F23000DA0902763E493FC9027571230024007CB
:102F33007A007B00022FF98518828519837401F0CA
:102F4300120D75E50CF0A3E50DF0AC08AD097403A3
:102F5300120D75AA82AB83122162AA18AB19122033
:102F6300BA740B120D75123D4F8E828F83A3A3A3E8
:102F7300A3A3A3E4126E80AA0CAB0D1212BC7800BB
:102F8300E50A6007C39405500278048E828F83E5B7
:102F93000CF0A3E50D126464E50AF0E88E828F83DA
:102FA300A3A3A3A3A3125AB55001097A027B00126B
:102FB300039312340FA31256E0A3123453E50A60AD
:102FC3000DC3940350081233DE12301A80031233F8
:102FD300F5F07A047900120DA08A08902763E49330
:102FE300FAC3E5089AEB94004005900D66E4F012ED
:102FF3001196EEFAEFFB0233B3123012E8492212B4
:103003003012ECC398F8E499F9C3EA98EB9922E4F7
:1030130093F8740193F922F9EE2414F582E43FF551
:1030230083E8F0A3E922EB75F016A4F8A9F01234B3
:1030330048F42274F212057274F3120B4A8A088B55
:1030430009ECFEEDFF750A00EEFAEFFB120DCA8ADA
:103053000C8B0DA80CA90DE84970030230FA888285
:103063008983E065087004A3E0650970030230FA00
:1030730088828983A3A3A3A3E0C39405507988829C
:1030830089831262E41247D2E0603488828983A381
:10309300A3A3A3E0C394035026902753E493FA74A5
:1030A3000193FB12364990275DE493FA740193FB75
:1030B300E82414F582E439F583EAF0A3EB800DE804
:1030C3002412123101F0E82414123101F085188220
:1030D3008519837401F0120D751262E4F0EEFCEFB2
:1030E300FD7403120D75AA82AB83122162AA18AB79
:1030F300191220BA750A01A90A740D025700F58244
:10310300E439F58374FEF0A3042274F612057212F7
:103113000DC48A088B09A808A909E84960148882A4
:103123008983A3A3A3A3E06009C394055004790191
:1031330080027900802F74F6120572120DC48A087A
:103143008B09A808A909E849601488828983A3A385
:10315300A3A3E06009C394035004790180027900BA
:103163008003120ACC7F0202083574F6120572122C
:103173000DC48A828B83E5824583600BA3A3A3A33B
:10318300E0700479018002790080DAC082C083EAAA
:10319300FCEBFD7A007B00023F67C082C0837C00AA
:1031A3007D00023F6774F512057274F3120B4AEA4D
:1031B300FEEBFF8C088D09C3EC94F8ED94FF4004FB
:1031C300EE4F606A750A00801974FF650870047415
:1031D300FF6509600B1265E17004A3E06509603BBC
:1031E300050A902763E493F8E50AC3985040E50A7B
:1031F30012302A60EBEE4F60D012323C120D751282
:1032030043931220C0E960D87403120D75AC82ADEC
:1032130083EEFAEFFB121CE8E960C5E50A75F016C8
:10322300A4F8A9F0745828FA740639FB80047A00CC
:103233007B00740D120ACC801B8518828519837458
:1032430001F0745A28F582740639F5831243A57484
:103253000B22A90A7F0302083574F412057274F372
:10326300120B4A750800120DCA8A0A8B0BAE0AAFFD
:103273000BEE4F601F1232BF12324F120D75124305
:103283009312214A7C167D0079FFEEFAEFFB121BA5
:10329300567508017A047900120DA08A0A902763F3
:1032A300E493FAC3E50A9AEB94005009900D66740F
:1032B30001F0121196A908740D024A01851882853E
:1032C30019837401F08E828F83A3A32274F71205EE
:1032D30072E9FC74FE6A700374FF6B7D00700380F7
:1032E3002C0D1233315026ED12302A60F41270C5C2
:1032F3006A7003A3E06B70E98012ED75F016A4F811
:10330300A9F01270B86018E0640360130D12333132
:103313005015EC60E512343C60F2C3940550ED1295
:10332300682512579D80047AFE7BFF0243BE9027D7
:1033330063E493F8EDC39822120DDC023F6AC08266
:10334300C083790180F274F01205728A0A8B0B7ABA
:10335300047901120DA08A0C8B0DEA450D6040EA39
:103363002AFAEB33FB121BF28A088B09AE08AF096A
:10337300EE4F60267AFE7BFF120DE274FE6A700345
:1033830074FF6B601E85088285098312466EE5080B
:103393002402F50850E2050980DE750C0080047EE6
:1033A300007F00850A82850B83E50C1245A2800508
:1033B300740D120ACC7F08020835E493F8ECC39825
:1033C30022126E88EC22E0F508A3E0F50922120A26
:1033D300CC7F0C0208357F07020835902753123043
:1033E30012EE12681C123D5690275DE493F87401A7
:1033F3009322EE2412123403F0EE24141234032227
:10340300F582E43FF58374FEF0A30422E88E828FF5
:1034130083A3A3A3A3A3A3A3A312343474011234D9
:1034230034A374AAF0EE2410F582E43FF583E4F0AC
:1034330022126487A3A3A3A322ED75F016A4F8A90F
:10344300F012344822745C28F5827406126F7422D9
:10345300A3F0124555E4F0EE240CF582E43FF58326
:10346300E4F0A3F0A3F0A3F022C082C0837D008028
:1034730009EA24FF1AEB34FFFB0D12333150161205
:10348300343CC3940550F2EA4B70E6745828FA743E
:103493000639FB80047A007B00023F6A74F7120549
:1034A3007274F3120B4A7E00023537EF75F017A4DE
:1034B300F8A9F012709B12588675F016A4FAABF0B7
:1034C30074582AF5827406125AD87003A3E069600F
:1034D30040EF75F017A4F8AAF0EAF912709B39F5DA
:1034E30083123F2B7401120D75E0687003A3E0692A
:1034F300601FEF75F017A4F8EAF9742828FC740824
:1035030039FD7403120D75AA82AB83121CE8E960BE
:1035130013EF75F017A4F8A9F0742628FA74083984
:10352300FB1212C80F902760E493F8EFC39850037F
:103533000234AE0E902763126C0A501FEE1270BE57
:10354300F47003A3E0F460EB12323C120D751243E6
:10355300931220C0E960DC7F0080CA0243B974F78C
:1035630012057274F3120B4A90040B125068700325
:1035730002360D750800802BE50875F016A4F8EAED
:10358300F9746C28F5827406126F7064FE7003A3DD
:10359300E0F4600D746A28F582740639F5831256D7
:1035A300F605089027631256BF505FE50875F016BD
:1035B300A4F8AAF0EAF912344460E6C3940350E194
:1035C300746A28F582740612506570ACE50875F0CC
:1035D30016A4F8EAF9745828F8740639F9E8FEE9EC
:1035E300FF1236AB1236A11222151232BF12324F1E
:1035F300120D751243931220C0E960A57403120DD6
:1036030075AA82AB83120DD680970243B974F61262
:103613000572120DC48A088B09A808A909E8496034
:103623002088828983A3A3A3A3E06011C3940350DA
:103633000CE82414F582E412579D1236497901806F
:10364300027900023168E82412F582E439F583EA4D
:10365300F0A3EBF02274F7120572EAFEEBFF90047D
:1036630005125068603090040B1250686028900473
:103673000F1250686020126966122215E970171242
:10368300369C122215E96401700C8E828F83A3A3EA
:103693001269531222150243BE1236ABA3A3125072
:1036A3007F90040B12695D2290275DE493FC740103
:1036B30093FD8E828F8322C082C0839003417476F0
:1036C300F0A37410F09003437470F0A37410F0909F
:1036D30003477484F0A3740EF0023F6AC082C08370
:1036E300900345746AF0A37410F0023F6A74F712F2
:1036F3000572EAFEEBFF90037BE06408601CE06464
:103703000460178E828F83E0540364017041125466
:1037130058F8123761E0640670358E828F83A3A355
:10372300E064FE7003A3E0F460258E828F83A3A37D
:10373300125E997003A3E0697008EE2415125E8E81
:10374300600512112A8003121130E9F50880037510
:1037530008C2EEFAEFFB121BF8A9080243BEA3E06E
:10376300F58388822274F41205728A088B09123950
:1037730030FAE82AFAE43400FB121BF28A0A8B0BB4
:10378300AE0AAF0BEE4F6055850882850983E0FCD6
:103793007D007900121B568E828F83A3122C941204
:1037A30011668E828F83A3A3A3A3EAF0A3EB123740
:1037B300E7F8EE28F8E43F122DF2850882850983A5
:1037C300A3E0C0E0125A9AD0E0F0121178125A9096
:1037D300E9123D32E0C0E0123D28D0E0F0EEFAEF0E
:1037E300FB024A04F0850882850983E02274F412FF
:1037F300057274E8120B4A8A088B098C0A8D0BE94F
:10380300FE90037BE064046005E06408700479C201
:10381300803CA37808120D1BEE900382123A7312B8
:103823001B568518828519837808120D1B7405129F
:103833000D75EEF07404120D757401F07407120D1A
:1038430075E4F090037B740212439712201E024921
:10385300FF74F412057274E8120B4AEAFEEBFF9050
:10386300033C125068600302392B7A077B00121B5A
:10387300F290033C12466E90033C125068700302B0
:1038830039278E828F83120D5E90033CE0FCA3E008
:10389300F5838C82120D52EE2404F50AE43FF50BF6
:1038A300850A82F583E0C0E090033C12503CA3A359
:1038B300A3D0E0F0EE2405F508E43FF5098508827E
:1038C300F583E0C0E090033C12504AD0E012438DF0
:1038D300C0E090033C123934C82406F582E438F57D
:1038E30083D0E0123A73121B568E828F83120D5EC1
:1038F300851882851983120D52850A82850B83E010
:10390300C0E07405120D75D0E01237E7C0E074040F
:10391300120D75D0E0F07407120D75E4124397127F
:10392300201E80067910800279010249FF8A828B6A
:1039330083E0F8A3E022C082C08390033C12506866
:10394300601090033C1257A0121BF890033CE4F064
:10395300A3F01210A0121268023F6A74F4120572E7
:1039630074E8120B4A8A0A8B0BECFEEDFF8908748C
:1039730028120D75E0FC7429120D75E0FD740F6CAF
:103983007005740F6D6012900DB2E064026005EC77
:10399300C39D500579C1023A707424120D75120D3E
:1039A3005E90037C120D52E508900382F0EC9003C5
:1039B30080F0EDA3F0742A120D75E0900383F07488
:1039C300FF650A700474FF650B7024900DC6E0F464
:1039D3007003A3E0F4700C121B62900379EAF0A366
:1039E300EB8012900DC6126842E8F0A3E9800690BE
:1039F3000379125AAEF0EE4F6017EEFAEFFB121393
:103A03001CE96401700BEEFCEFFD7A8D7B03121C45
:103A1300EE90036CE4F0A3F090036FF0A3F0900337
:103A23008CF0900DB2E064027008900380740FF084
:103A3300A3F090037B7405123A73121B567404129D
:103A43000D75E4F090037C120D5E85188285198351
:103A5300120D52900382E0C0E07405120D75D0E0A0
:103A6300F07407120D75E412439712201E0249FFEA
:103A7300F07C187D007900AA18AB1922C082C0839C
:103A8300900340E07003121EF8120E42023F6A7464
:103A9300F0120572900340E0900D65700FE0600531
:103AA3007900121DFC900D65E4F0804AE06401602A
:103AB30008900340E0F9121DFC900D657401F0902D
:103AC3000340E0F46030E0F50CE4F50DF50EF50F7E
:103AD300F09080797808120D2A780C790812048303
:103AE300780C120AB17A807B009003C6E0F9121CAD
:103AF300B87404120ACC7A657B0D79411220060250
:103B030033B874F412057274E8120B4A8A088B09ED
:103B13008C0A8D0BE9FE90037B7401123A73121B1E
:103B2300568518828519837808120D1B7405120DAA
:103B330075EEF07404120D757403F07407120D75AD
:103B4300E412439712201E0249FF120E540243BE91
:103B530074F71205727C0080F174F012057274FC24
:103B6300120B4AE9851882851983F0EAFEEBFF8C74
:103B73000A126E811210948A088B09EA45097005AE
:103B830079CA023D238A828B83A3A3A3A3A3A3A3FE
:103B9300E064FE7003A3E0F4700579C3023D2312D1
:103BA30011668A0C8B0DA80CA90D850882850983E3
:103BB300A3A3A3A3A3A3A3E0687003A3E069700571
:103BC30079C2023D23900379123F2B850882850930
:103BD30083E0687003A3E069601285088285098326
:103BE300123E9FAA08AB097950122006900379125E
:103BF30057A01212CE850882850983A3A3A3A3A38A
:103C0300A3A3A3A3A3E00490038C123E8B121CEE88
:103C13007402120D757402F014120B221211CC8A65
:103C23000C8B0DAE0CAF0DEE4F7003023D19124914
:103C3300887406F0A3A882A983900366125BC61258
:103C43005435121160124665EE2413125438125A79
:103C5300867440F0A3E4123D32A3A3A3A3A3123DB1
:103C63004F123D28E50A1245A2120E18E9F50B6022
:103C730003023D1C90037B7409F0E5082407FEE46E
:103C83003509FFEEFAEFFB794B1220068E828F8304
:103C9300123E9590036EE0F8851882851983E068DB
:103CA300600CE090036E12439779E1122006900DA9
:103CB3009F123F2B900DA1E0687003A3E069602879
:103CC30090033E124388900DA11257A01211901237
:103CD3003D3C780C120AB17A017B009003C6E0F9EF
:103CE300121CB87404120ACC7A007B049003C6E059
:103CF300F9121CC4123D3C7402780C120A59780C58
:103D0300120AB17A007B049003C6E0F9121CB8745E
:103D130004120ACC8003750B10900C6CE4F0A90B11
:103D230074040233B5EE2411F582E43FF58322F0E7
:103D3300850882850983A3A322900DA1E0F508A33A
:103D4300E085080CF50DE4F50EF50F22125AD0129A
:103D53003D5622E8F0A3E9F02274F612057274E2EC
:103D6300120B4A851882851983ECF0A3EDF0EAFE65
:103D7300EBFF890890037BE064046005E06408704E
:103D83000579C2023E867429120D75E064FE700344
:103D9300A3E0F4700579C3023E867C197D007900A7
:103DA3007405120B22121B5690037B740312439764
:103DB30079501220067429120B22794B12200685A2
:103DC3001882851983123E9FE50890036EF07429CB
:103DD300120D75123E957428120D75E0F5099003C6
:103DE30066123E8B121CEE74CE55094480C0E074FB
:103DF3001D120D75D0E0F0742B120D75E0049003C5
:103E03008CF0741A120D757402F07429120D751268
:103E13003F2B7412120D75E8F0A3E9123F24741BB3
:103E2300120D751243887410120D75E508F0740DA8
:103E3300120D75E4F0900381740FF07A817B03799E
:103E430054122006900380740FF07A807B03794725
:103E5300122006900380E0C3940F501F7410120DBC
:103E630075E0C0E07402120D75D0E0F07404120D19
:103E7300757401F004120B2212202A7405120B220E
:103E830012200C741E023165F0EEFCEFFD7A8D7B7F
:103E930003221243A590036F123D56221268461265
:103EA3003D562274F7120572EB900383F0121082D1
:103EB3000243BE74F712057274F8120B4AEAFEEB62
:103EC300FF790090037BE064086005E064047045BB
:103ED30085188285198374FDF0A374FFF0121160B5
:103EE3007402120D7512466E7405120D75123F1D84
:103EF300A3E0C0E07404120D75D0E0123F1EE0C0D1
:103F0300E07406120D75D0E0F07407120D75E4121B
:103F130043971211B474080243BBE4F08E828F837B
:103F230022F08518828519831243A522C082C0839B
:103F330090034D7420F0A3740FF09003F3740EF00C
:103F4300A37412F09003517456F0A3740FF090030E
:103F5300537420F0A3740FF0900355745CF0A374B2
:103F63000FF08003120DD0D083D082020A7E740733
:103F7300024A0174F51205728A088B098A828B83BF
:103F8300126CBBEE4F700302412E90031412506863
:103F930060158A828B83A3A3E0F9EEFAEFFB90030B
:103FA300151237621222158E828F83A3A3A3A3A3B4
:103FB300A3A3A3A3E0640260030240978E828F83CE
:103FC300A3A3A3A3A3A3E0540270030240BB8508E9
:103FD30082850983A3A3E064E970030240BB8508DB
:103FE30082850983A3A3E064CD70030240BB8508E7
:103FF30082850983A3A3E064F070030240BB8E8231
:104003008F83A3A3A3A3A3A3A3A3A3A3E070169047
:104013000DB6E0048E828F83A3A3A3A3A3A3A3A3BC
:10402300A3A3F0801012413F1211E4E970077A3024
:104033007B01121E98850882850983A3A3E0701F64
:10404300750A0080097A367B01121E98050A8508D5
:1040530082850983A3A3A3E0F8E50AC39840E68E0B
:10406300828F83A3A3A3A3A3A3A3A312647BA3A36A
:10407300A3A37404F0900DB7125ACAE81241311287
:104083001CCAEA4B4C4D700C7A207B009003C6E0AF
:10409300F9121BAA8E828F83A3A3A3A3A3A3A3A313
:1040A300A3E0640260128E828F83A3A3A3A3A3A3BE
:1040B300A3A3A3E0640670738E828F83A3A3A3A339
:1040C300A3A3E0A2E05064850882850983A3A3E04B
:1040D300F9EEFAEFFB1220DE8E828F83A3A3A3A354
:1040E300A3A3E054FEF012413F1211E4E9850882D4
:1040F300850983A3A3702AE070237A2F7B01121E04
:10410300987E00850882850983A3A3A3E0F8EEC304
:104113009850187A367B01121E980E80E67A318009
:1041230005E070077A2D7B01121E98023257F0A327
:10413300E9F07A207B009003C6E0F9228E828F8318
:1041430012695D12507F2274EC12057274DB120B3C
:104153004AEAFEEBFF8C108D11750E007405120BED
:104163002A1220A87412120D75E070087415120D2E
:1041730075E060207405120D75E0A2E6501B8E8277
:104183008F83A3A3A3A3A3A3A3A3A31257A0121133
:10419300E4E960057A350242937405120D75E05423
:1041A3000C64047005750D018003750D00E0A2E534
:1041B3005030750E01E50DA2E040271211668A0802
:1041C3008B09A808A909125458687003A3E0696011
:1041D300117405120B2A125EA81220F0E960030283
:1041E30042917405120D75E0A2E650227406120D79
:1041F30075E0540370187405120D75E0540C640CCB
:10420300600CE0540C64086005750C018003750CA8
:10421300007405120D75E05403F8740268700E748F
:1042230005120B2A125EA812209602437D740168C0
:104233007041E50CA2E0500B7405120B2A125EA824
:104243001220A27405120B1A7403120D75E8F0A361
:10425300E912439D851882851983E8F0A3E9124387
:104263008DC0E07402120D75D0E01243971221E65F
:1042730002437DE8600302437D900363E0640170C1
:10428300178E828F83A3A3A3A3A3A3E0700A7A3418
:104293007B01121E9802437D7424120D7574021261
:1042A300439D741C120D75124388E50CA2E0500B5C
:1042B3007405120B2A125EA81220A27439120D750E
:1042C3007808120D2AE50DA2E0EE5072240F125E5B
:1042D3008EC0E07417120D75D0E0F09003161250E3
:1042E30068700302437D1211668A128B13A812A908
:1042F30013741C120D75E0687003A3E069707B787A
:1043030008120AB1E50EF5087808120ABD8E828FED
:1043130083A3A3A3A3E0F5087808120ABD781012BB
:104323000AB9A90C740D120B2A7424120B229003E0
:10433300161258121222157408120ACC803C125E0F
:104343008CF50C780C120ABD7808120AB1E50EF54B
:10435300087808120ABD7810120AB9900379120975
:1043630004EE2412125E8EF97426120B2A740F12B5
:104373000B221220C6740A120ACC74250233D1A36D
:10438300A3A3A3A3A3E8123D5722126483A3E022AD
:10439300E8F0A3E9F0AA18AB1922F012455512432D
:1043A300A5221243A922E0F8A3E0F92274F712052B
:1043B30072121DD88005740D120ACC7F01020835D4
:1043C30074F7120572121DE480F174F7120572126C
:1043D3001DF080E7C082C083121DEA023F6A74F7B2
:1043E300120572121DF680D374F712057274091246
:1043F3000D75E0F5087808120ABD121E08740180D5
:10440300B7C082C083121E14023F6AC082C08312E7
:104413001E1A023F6A74F7120572121E20809C74E2
:10442300F7120572EAFEEBFF890874016508701440
:104433007900120F9890276CE493FC7900EEFAEF61
:10444300FB120F0E0243BE74F7120572121E0E0208
:1044530043BE74F412057274F9120B4AE9FE8A081A
:104463008B098C0A8D0B900CA3125068602BEE8580
:104473001882851983F07401120D757808120D1BCB
:104483007413120D75123F2B7405120D751243939D
:10449300900CA3125812122215023F71C082C083DE
:1044A300121E56023F6A74F7120572121E2C024343
:1044B300BE74F7120572900D68E0F97E00800B124E
:1044C3004724540D64017001190E1246BB5003E9D1
:1044D30070ED0243BE74F7120572900D69E0F97E28
:1044E30000800B124724548D64817001190E12460B
:1044F300BB5003E970ED0243BE74F2120572890BDF
:10450300E975F006A4A9F0240CF508E439F509E5EA
:10451300082AFAE43509FB121BF28A0C8B0DAE0C48
:10452300AF0DEE4F6021AC08AD097900121B561296
:104533004551E50BF0EE2508F8EF3509F98E828F2A
:1045430083A3A3A3124382EEFAEFFB0257031245A0
:104553005522EE125EB73FF5832274F6120572EA16
:10456300FEEBFF120EEA900D67E0F8E9C3984009ED
:104573009003491257A0120EF0EE2402F8E43FF91B
:104583008808890990034B125BC690034BE0041221
:1045930045A2120EF6850882850983E00229CAF036
:1045A300EEFAEFFB22C082C08379009003498001B9
:1045B300091257A08A828B83E582458370F2023FFA
:1045C3006A74F7120572EAFEEBFFEE4F605A90032E
:1045D300491250686052888289837A007B00EE65B5
:1045E300827003EF65836013AA82AB83123F2B882B
:1045F300828983E5824583602F80E39003491258C3
:1046030089687002EF698E828F837008123F2B9046
:104613000349800312694B124388EEFAEFFB122120
:10462300B6EEFAEFFB121BF80243BEC082C08390C2
:104633000349800488828983125068600A888289CA
:10464300831233C44D70ED8A828B83E4F0A3F0E8C8
:1046530049600688828983800390034912466E026B
:104663003F6AEE241AF582E43FF583EAF0A3EBF008
:104673002212507FEA4B2274F7120572900349808D
:10468300048A828B8312467460277E0080010E1297
:1046930046BB50EDEE75F006A4FCADF0EA2CFCEB46
:1046A3003DFDEC2410F582E43DF583E06970DF8085
:1046B300047A007B000243BE12471AEEC3982274A9
:1046C300F71205727D0080010D124716EDC3985055
:1046D3003BED75F006A4FEA8F0E8FFEA2EFEEB3FE3
:1046E300FFEE2410125E8E6970DEED75F006A4FEF7
:1046F300E8FFEA2EFAEB3FFBEA2411F582E41257B6
:10470300C54CF0EA240CFA50070B80047A007B00B6
:104713000243BE12471A22EA125EB73BF583E0F862
:1047230022EE75F006A4FCADF0EA2CFCEB3DFDECAB
:104733002411F582E43DF583E02274F6120572122A
:1047430010047B008016EB75F006A4F8A9F0125B49
:10475300F4E41247D2F0A3125BBCF00B90074712AC
:104763005AA740E27A0080168A0875090074037814
:1047730008120C3E1256C7125AC5A3E4F00A90273A
:104783005FE493F8EAC39840DF7900801A890875DB
:10479300090074037808120C3E744E126CC3740B38
:1047A300126AFC122C95099027661262CA40DE90A9
:1047B300276EE493900357F09080791209007A10E2
:1047C3007B009003C6E0F9121CBE7404023165122B
:1047D30062D8A32274F012057274F5120B4A8A0888
:1047E3008B09890A8C0BE9A2E050147508FC750942
:1047F300FFA2E15005D2E40248A0D2E30248A0128E
:104803000FEC8A0C8B0DA80CA90D90036CE068705B
:1048130003A3E069600EAC0A7902AA08AB09120F80
:10482300E6E970057900024971E50AF50C780C1286
:104833000ABD79027CFE7DFFAA08AB09120F6274E0
:1048430001120ACCE9600302496FE50AC2E5F50AE1
:104853009003B9E07049E50AA2E640437403120BE2
:104863002AAA08AB09122156E9702E1250431212DC
:10487300AA8A0C8B0DAE0CAF0DEE4F6022EE240214
:10488300FAE43FFB12215CE96015EE2402FCE43FED
:10489300FD7403120B22121CEEE50AD2E5F50A9011
:1048A300034CE0F50C90036C124B33780E120AB9EB
:1048B3007D017C0090034CE0F9AA0EAB0F120FA40C
:1048C3007402120ACCE9F890034CE004F0E86003A8
:1048D30002496FE50AA2E55004740E80027406C013
:1048E300E07401120D75D0E01243971211CC8A0EB9
:1048F3008B0FAE0EAF0FEE4F606E12543512116078
:104903001246651249887401F07478550AA3126E31
:10491300EDE50C126EEDA3E508F0E509124976E426
:10492300F0E50AA2E5500F7403120B2AE82406FAF5
:10493300E439FB121CEE8E828F83A3A374FDF0A3D4
:1049430074FFF0E50B601890276DE493F8E50BC353
:1049530098500CEE2413F582E43FF583E50BF0EE5B
:10496300FAEFFB120E1880067910800279C7740BD8
:104973000233B588828983A3A3A3A3124982221297
:1049830062DCA3A322EE125EB33F12499122F583A8
:104993001243A9888289832274F41205727A007BF8
:1049A300109003C6E0F9121CCAEA4B4C4D60089004
:1049B30003D87401F08043900D4CE06401900DB373
:1049C3007006E0FC79018004E0FC79037A007B0047
:1049D300120F0E90275BE493F508740193F509E435
:1049E300F50AF50B7808120AB17A007B109003C61A
:1049F300E0F9121CB87404120ACC80057418120A68
:104A0300CC7F0402083574F01205728A088B098C76
:104A13000A8D0B890C1211E4E960057AFF024AF74B
:104A2300900DB2E064026003024B23902764E49389
:104A3300F9AA08AB09121016E96003024B1D7900AD
:104A4300AA08AB09120FECA90C120FE08A0E8B0F08
:104A5300AE0EAF0FEE4F7003024B098E828F83A30E
:104A6300A3A3A3A31261E070731257A08E828F8356
:104A7300A3A3A3A3A3A3E05418604D90276BE493CF
:104A83008E828F83A3A3A3A3F07410120D75126EED
:104A9300847412120D75124B33EA650A7003EB65C9
:104AA3000B6012EA6C7002EB6D600AEA650E70032C
:104AB300EB650F701B780E120AB9AA0AAB0B121220
:104AC300E67402120ACC800890036B126472A3F09E
:104AD30074FE6A700374FF6B601E8051A3A3A3E08E
:104AE3006403602A8E828F83A3A3A3A3A3E0640439
:104AF30070067AFE7BFF80358E828F83A3A3A3A3E8
:104B0300A3E0640270089003B8E0640270127907AE
:104B1300AA08AB09121016E96006AA08AB09800DB2
:104B2300AA08AB0990034D1258121222150233B88A
:104B3300E0F50EA3E0F50F2274F7120572EAFEEB1F
:104B4300FF120DB2E9700AEEFAEFFB120DBEE96037
:104B530006EEFAEFFB80047AFE7BFF0243BE74EE9F
:104B63001205728A0A8B0B8C0C8D0D890E75080049
:104B73001211E4E979006003024CC7AA0AAB0B12D5
:104B83000FECA90E120FE08A108B11AE10AF11EECD
:104B93004F60198E828F83A3A3A3A3A3E064027043
:104BA300529003B8E064027003024CC5AA0AAB0B2F
:104BB30012580F122215120DC48A108B11A810A9B6
:104BC30011E8497003024CC588828983A3A3A3A378
:104BD300A3E0A2E04003024CC5750901A2E1504BDA
:104BE3007901AC0AAD0BAA0CAB0D120F3EE970476D
:104BF300024CC58E828F83A3A3A3A3A3E0640360A7
:104C0300258E828F83A3A3A3A3A3E0640160030281
:104C13004CC579078E828F83A3A31257A012101657
:104C2300E96003024CC5750902801088828983A359
:104C3300A3A3A3A3D2E1F0EE4F603A8E828F83A3A6
:104C4300A3A3A3A3A3E05418602B7508018E828F3E
:104C530083A3A31209047510FE7511FF7810120ABD
:104C6300B97900AC0AAD0BAA0CAB0D120FF87404A2
:104C7300120ACC804D7900AA0CAB0D120FEC8A10EE
:104C83008B11A810A91190036CE0687003A3E0696D
:104C9300701490276CE493FCA90EAA0AAB0B120FB5
:104CA3000E750801801CA909AC0AAD0BAA0CAB0D4B
:104CB300120F3EE9700C750801A90EAA0AAB0B127C
:104CC3000F98A9088003120ACC7F0A02083574EBF7
:104CD30012057274F0120B4A8A0C8B0D8C088D0925
:104CE3007512069003F9125068601712504312129E
:104CF300D48A108B11EA451160088A828B83A3E062
:104D03006068E50C241DF50EE4350DF50F850E8264
:104D130012525FF51488828983A3A3A3E0FA8882E1
:104D23008983A3A3A3A3E0F8E4C8F9EA28FEE4393E
:104D3300FFAA08AB09120F9E850E82850F831250BE
:104D43004AE029F50BE50AA2E5500375120E7487B4
:104D5300550A700F7418550A6418600712502D65B0
:104D630012600C7AD37B00121E98790002501753FD
:104D73000A78C3EE94F8EF94FF50247900EEFAEF2B
:104D8300FB120FE08A0E8B0FA80EA90FE849600FE4
:104D930088828983A3A3A3A3A3A3E0541870CB7829
:104DA30008120AB97D00AC0BA914125074120FA497
:104DB3007402120ACCE9F874036860AE7425120D0C
:104DC30075126CC86003024E8E7418550A70030284
:104DD3004F49E50AD2E0F50AA2E45004D2E1F50A0C
:104DE300A90A125074120FE08A128B13A812A91386
:104DF300E849605C88828983A3A3A3A3A3A3E054A7
:104E030018604D88828983A3A3A3A3A3E0640170E0
:104E13003FE51045116039126E8188828983A3A30F
:104E23001257A01212D48A128B13A812A913E8499D
:104E3300601E88828983A3E06016851082851183B2
:104E4300A3E0FA88828983A3E0C39A5003024D6DDD
:104E5300E50AF5107810120ABD12506E120F627433
:104E630001120ACCE970247C007D00850E82850F37
:104E73008374FFF0125450A3A3A3E06006125021E1
:104E8300126E84A90B125074120EBA850E82850F0E
:104E930083E0F47003A3E0F4603C9003B8E06402A1
:104EA3007003024D6D12507490034F125812122268
:104EB30015EA65087003EB65096003024D6DEEFAB0
:104EC300EFFB90034F125812122215850E82850FA5
:104ED30083EAF0A3EBF07808120AB97D01AC0BA9C1
:104EE30014125074120FA47402120ACCA90AEEFA17
:104EF300EFFB120FEC8A088B09A808A90990036C31
:104F0300E0687003A3E0696003025009EEFAEFFB67
:104F1300120DC48A088B09A808A909E849606F889B
:104F2300828983A3A3A3A3E06401600D888289839C
:104F3300A3A3A3A3E064027055AC18AD19EEFAEF76
:104F4300FB1221568056900365E06014E50AF510C4
:104F53007810120ABD12506E120F627401120ACC3D
:104F6300E50AF5107810120ABD79027CFE7DFFEE8A
:104F7300FAEFFB120F627401120ACCE96003024ECE
:104F83008E850E82850F8374FFF0A3024ED8121113
:104F930060EAFCEBFDAA18AB19121CEE850C8285A6
:104FA3000D83A3A3A3A3A3A3A3A3E06401700E1281
:104FB3005021126E847408120B22121CEE125247F7
:104FC30012503AE04430F5087808120ABD74011211
:104FD3000B1A880889097808120AB9740B120B1A7C
:104FE300880889097808120AB9E514F508780812BF
:104FF3000ABD7900EEFCEFFD125074120F387406EF
:10500300120ACC024D6D125247F58312504AE50B3A
:10501300F01211787410120ACC7F0D020835E50CDA
:105023002415F582E4350DF58322E50C2417F5826A
:10503300E4350DF583E022F583E0F8123761A3220E
:1050430090037912527B2212695DA3A3A3A3A32227
:10505300E50D75F006A4F8AAF0EAF974B228F58212
:10506300740A39F5831243A5E849227901AC08ADE6
:1050730009125EB1350D12507D22F583E0FAA3E0EB
:10508300FB2274EE12057274F0120B4A8A0C8B0D1C
:10509300ECFAEDFB750F089003F9125068603112BA
:1050A3006E811212D48A088B09AC08AD09EC4D60ED
:1050B3001F8C828D83A3E07017125ABA5001097AAC
:1050C300027B00120393E88C828D83F0A37407F0B4
:1050D30012524712525FF50E88828983125251E0B1
:1050E300FAE4CAFBEC2AFEE43BFF88828983A3A38C
:1050F300125251A3A3E0FBECF508E43BF5098882C7
:105103008983A3A3A3A3A3A3A3E0F50BE50AA2E4C6
:105113005003750F10A2E550067408250FF50F74A0
:105123008F550A700712502D650F600A7AD37B00E2
:10513300121E98025242530A707800E50AA2E45004
:105143001FE50C241D1250312408FCA3E03400FD9C
:105153007408120B22121CEE7808E50AC2E4F50A61
:10516300E50AA2E55022E50C241D12503128F8A3CC
:10517300E03400F9E82408FCE439FDAA18AB19125D
:105183001CEEE50AC2E5F50AA90EEEFAEFFB120FD3
:10519300DA90275F1262CA502989107511007403CF
:1051A3007810120C3E74132510F582740B3511F52B
:1051B30083E0F8E50BC3985007E50BF07800800413
:1051C300807D780490036CE06E7003A3E06F605FF2
:1051D300E87019E50AF50F780F120ABD12526E1224
:1051E3000F627401120ACCE970558005740468706B
:1051F3004E780A120ABD7401120B1A880C890D78B5
:105203000C120AB9740B120B1A880C890D780C1244
:105213000AB9E50EF50A780A120ABDA90BAC08AD66
:1052230009EEFAEFFB120F387406120ACC801078DD
:105233000A120ABD12526E120F627401120ACC7462
:1052430010024CC9E50C241DF582E4350D22A3A3FD
:10525300A3E0FC88828983A3A3A3A322124991A379
:10526300E0F50A88828983A3A3E0227901125EB163
:10527300350DF58312527B22E0FCA3E0FDAA08ABB7
:10528300092274EB12057274F5120B4A8A088B0912
:105293008C0A8D0B89147420120D75E0F511F91227
:1052A3000FDAE9F50C90275F1262CA501B750D00E7
:1052B3007403780C120C3E7411250CF582740B35B3
:1052C3000DF583124B33801E90034F12506860100C
:1052D300AA08AB091237621222158A0E8B0F8006B9
:1052E300750EFE750FFF7401120D757408F07425A9
:1052F300120D75E0F510A2E450087401120D7574D7
:1053030010F0E510A2E550097401120D75E02408B0
:10531300F0AA18AB191211CC8A0C8B0DAE0CAF0D81
:10532300EE4F700302543012543512116012466569
:105333007421120D75E0F512A3E0F5137403120B3B
:105343002AAA0EAB0F122156E96013EE241612544B
:10535300387403120B1AEE241812301E8027E5103E
:10536300A2E45022E50E65087004E50F6509701686
:10537300EE2416125438EE2418F582E43FF583E543
:1053830012F0A3E513F0125458F50CA3E0F50D85C4
:105393000C82F5837402F0A3E510125442E5111256
:1053A3005442A3E508F0E509850C82850D83A3A388
:1053B300A3125450E50AF0E50B850C82850D83A3F7
:1053C300A3A3A3A3A3F0AA0EAB0F120F9EE9251468
:1053D300850C82850D83A3A3A3A3A3A3A3F07508C0
:1053E30000E510A2E45013AC12AD13E50C2408FA47
:1053F300E4350DFB121CEE750808E510A2E5501B01
:105403007423120D75126E84E50C2508F8E4350D2E
:10541300F9E82408FAE439FB121CEE8E828F83A389
:10542300A3E50EF0A3E50F1245A2120E18740B02AA
:105433005019EE2417F582E43FF5837401F022122C
:10544300544622F0850C82850D83A3A322A3125414
:1054530046A3A3A322124555E02274F41205728ACF
:10546300088B09ECFEEDFF750B0190036CE06508FA
:105473007004A3E065096013750B00780B120ABD75
:105483001212267401120ACCE9F50B7900AA08ABB3
:1054930009120FEC8A088B09A808A90990036CE08C
:1054A300687003A3E06970467900EEFAEFFB120F10
:1054B300E0EA4B60308A828B83A3A3A3A3A3A3E078
:1054C300541860217508FE7509FF7808120AB98A15
:1054D300828B83A3A3120904126DDE120FF87404E6
:1054E300120ACC80097901EEFAEFFB120EB4A90B74
:1054F300024A0474F21205727E967F097A107B00C9
:105503009003C6E0F9121CCAEA4B4C4D7017908009
:10551300791209007A107B009003C6E0F9121CBED1
:105523007404120ACC900357E014F060030255D8B8
:1055330090276EE493900357F07C0079057A007B03
:10554300001210EE8A088B090255CF7C007905AA58
:1055530008AB091210EE8A0A8B0B85088285098332
:10556300A3A3A3A3125068605DE5082404F8E435FF
:1055730009F9888289831256F688828983125068D2
:105583007044850882850983A3A3A3A3A3A3E0543E
:10559300046013850882850983A3A3A3A3A3A3A3FC
:1055A300A3E0F9120FC8850882850983A3A3A3A3E7
:1055B300A3A3A3A3A37406F07AF0850882850983C5
:1055C30012634F121034850A08850B09E508450953
:1055D300600302554E75080080608E828F83A3A3FB
:1055E300A3A3E0604CF46049EE2404125E8E14F031
:1055F300703F8E828F83A3A3A3A3A3E064037015DC
:1056030079028E828F83126E848E828F83A3A3127C
:1056130057A0120F3E8E828F83A3A3A3A3A3E0649C
:1056230001600E8E828F8374FEF0A3041256E0E4B1
:10563300F00508EE2407FE50010F9027781256BF9D
:1056430040987E0080391211128E08750900740388
:105653007808120C3E740E2508FC740B3509FD7A8C
:105663004A7B0F121100EA4B70DC8E087509007437
:10567300037808120C3E1256C7125BBCE4F00E907E
:10568300275F126C0A501B8E087509007403780893
:10569300120C3E1256D5E82407126F6D14F070DE1B
:1056A30080A77B008009EB1256E4600214F00B9094
:1056B3000747125AA740EF8047900747E493F8E55E
:1056C30008C398221256D588828983A374FEF0A357
:1056D3000422740E2508F8740B3509F92212648329
:1056E3002275F006A4F8A9F074AE28F582740A12A4
:1056F3006F7422E024FFF0A3E034FFF022120ACCFF
:105703007F0602083574F712057274DF120B4AEC38
:10571300FEEDFF750800EE4F6069123930C8241F93
:10572300F582E438125066605A8A828B831257A03E
:10573300AC18AD19EA241EF582E41257C5F9EA2420
:105743001F1227CB121148740B120D751257A47038
:1057530003A3E069702D7402120D75E064017023D8
:10576300741D120D75125812E064017016741D1227
:105773000D7512503EA3E0F88E828F83E0687003AC
:10578300750801A90874210243BBE50D75F006A451
:10579300F8EAF974B228F582740A39F58312507F56
:1057A300221257AAE068221257AE221243A98E8210
:1057B3008F83A32275F016A4FAABF0745C2AF582EA
:1057C30074063BF583E02274F4120572E9702479C0
:1057D300009003511258121222158A0A8B0BAE0A3B
:1057E300AF0B74FE6E700374FF6F701A902767E43B
:1057F30093601379019003511258121222158A0AE9
:105803008B0BAE0AAF0B1211960237E090035312C3
:10581300695D2274F612057274F3120B4A121B624D
:105823008A088B09AE08AF0990036CE06E7003A37E
:10583300E06F60E912116CEA6E7002EB6F60DEEEEE
:10584300FAEFFB1211E4E970D4EE4F60D0851882B1
:10585300851983E4F004120D75EEF0A3EF1243975C
:105863001220D8E970B774FE6E700374FF6F60ADD9
:10587300EEFAEFFB740D023165C082C083121196FC
:10588300023F6A39F5831243A5EE2274F2120572C0
:10589300EAFEEBFF8C0A8D0B890874FC6E700374AF
:1058A300FF6F7003025A817900120FEC8A0C8B0D83
:1058B300AE0CAF0D740E120D75E0F50990036CE09C
:1058C3006E7003A3E06F7009E509A2E64003025A74
:1058D30081A909120FE08A0C8B0DA80CA90DE849C8
:1058E300704679007AFE7BFF120FE08A0C8B0DA8BD
:1058F3000CA90DE84970317418550960267B0080A6
:10590300010B902778125AA75019EB75F007A4F8EA
:10591300A9F0126C11541870E8749628F8740939B8
:10592300F9801D7902025A8388828983A3A3A3A3E2
:10593300A3A3E054186009741855097003025A812F
:1059430088828983EEF0A3EFF074FE650A70047415
:10595300FF650B600A88828983A3A3125AAEF0887D
:10596300828983A3A3A3A3A3A3E509F0A2E0500D17
:1059730088828983A3A3A3A3A3A3D2E2F0740165BE
:105983000888828983A3A3A3A3A370357401125A41
:10599300C5E05418602590276BE49388828983A31C
:1059A300A3A3A3126E80AA0AAB0B1212D48B0DEA27
:1059B300450D6003025A817E00803190036BE080C5
:1059C300DAE064017003025A8188828983A3A3A366
:1059D300A3A3A3E05418600790276BE4938004907B
:1059E300036AE0124976E508025A800E9027601296
:1059F3006C0A4003025A817D00802BED75F007A4E9
:105A0300F8A9F0749828F582740912588675F0176E
:105A1300A4FAABF074262AF5827408125AD87003DC
:105A2300A3E06960C60D90277812333440CDE49328
:105A33006D70B8EE75F017A4F8A9F0742628FE74FB
:105A43000839FF7C177D007900EEFAEFFB121B5635
:105A53008E828F83125AAEF0900379125ACA124380
:105A630082125A8674AAF0125A907401125AB550CF
:105A730001097A027B00120393125A9AE8F0790023
:105A8300025703EE240FF582E43FF58322EE240E42
:105A9300F582E43FF58322EE240DF582E43FF5839E
:105AA30022902763E493F8EBC39822E50AF0A3E579
:105AB3000B22F0125ABA22902777E493790024013B
:105AC300F822124982A322125AD0A3A3221257AE5C
:105AD300A322F582E43BF583E0682274F212057297
:105AE3008A088B09890C1262C340057905025BB9E8
:105AF300121E5CAA08AB09120F74E9F50D90074753
:105B0300E493650D700A7AFE7BFF120F74E9F50DBD
:105B1300900747E493F8E50DC3984003025BB7127F
:105B23005053600612578D121BF8E50C602BE50DE0
:105B330075F006A4F8A9F0125CF7F8500109880A79
