:020000040000FA
:06000000020D01020330B5
:03002B000209D3F4
:0300330002078A37
:0300530002026B3B
:03006B0002075F2A
:100083000202BC01010503012222000000005821E5
:1000930000000000FF000000FF00018813D0070AE2
:1000A300010020FD00020612FFFF010100940A0077
:1000B3000000FFFFE70AE80364006400B8010202DE
:1000C3000000100005020701051E02051E020A0AB0
:1000D3000103B80B02803E0102FEFFE8030A05009C
:1000E30001AD0D020A1401E000120D11604F120D53
:1000F300206012E7548066F6120BEC7011120DA209
:10010300703B090909F4F618F618F618F622120CD2
:10011300007015120DAB08080860EAE6447FF61874
:10012300768018E4F618F622120DAB6016120DA2B3
:100133007012E4F608F608F608E65480F609090991
:1001430018181822EAC0E0EBC0E0ECC0E0EDC0E014
:10015300E687F0A4FBACF008E687F0A42CFCE435BA
:10016300F0FA1809E687F0A42C4B60027401CA3533
:10017300F0FCE433FB09E687F0D2F7A42CCB35F08F
:10018300FC1908E687F0A42BCC35F0FBE433FD081B
:1001930019E687F0D2E7A42C4ACB35F0CD3400FC26
:1001A30009E687F0D2E7A42DCC35F0FDE433FA0954
:1001B30018E687F0D2F7A42CCD35F0CA3400FC083A
:1001C300E687F0D2E7D2F7A42ACC35F07A7E20E78F
:1001D3000B0ACB33CBCD33CDCC33CC33CB33501411
:1001E3007004ED30E00ED2F1E4CD3DCDCC3CCC3B00
:1001F3005005DA05C2F1EB547FC63308E63392F0BB
:10020300FBE73309E733C39A502D2B70190C0D4CC0
:100213004D70151806E608C333700D20F10AA2F0DD
:1002230013F6E418800B4024E4F630F002768018CD
:10023300F618F618F68024D33B14501074FFA2F07E
:1002430013F6187680E418F618F6800FA2F013F66A
:1002530018E63303F618ECF618EDF6D0E0FDD0E01F
:10026300FCD0E0FBD0E0FA22C0E074F212064BA20D
:10027300AFE433FED2AF85A708AFA1EF5508541002
:1002830060061215EB75A1EFEF55085408600812CC
:1002930015F175A1F78013EFA2E092F0E508A2E053
:1002A30082F050061216B775A1FE751A00EEF8EE2D
:1002B300A2E092AF7F01020707C0E074F212064B7F
:1002C300A2AFE433FED2AF9061A4E0F8759B00E5E2
:1002D3009158540860087591F71216458026E591E8
:1002E30058541060087591EF12164B8017E591A2D0
:1002F300E092F0E8A2E082F0500A9061A4E0C2E04C
:10030300F01217AD9061A3E0F8E5E9585404600ECC
:1003130012178375E9FB906193E0A2E640F2751A28
:1003230000EEF8EEA2E092AF7F01020707C0E0748F
:10033300F212064BA2AFE433FED2AF9061A5E0F810
:10034300E5BF585404600675BFFB1217C5751A0044
:10035300EEF8EEA2E092AF7F01020707C3E498F83C
:10036300E499F91203A08026C3E49AFAE49BFBE91B
:1003730020E7E91203A0E498F8E499F922C3E4988A
:10038300F8E499F91203A0E498F8E499F9C3E49A1C
:10039300FAE49BFB22EB20E7CFE920E7E0B900106A
:1003A300BB0008E88AF084F8AAF022E4FBC8FA222A
:1003B300EB70227B10C833C8C933C9335007C39AC3
:1003C300C3DBF280069A50012ADBEAC833F4C8C9BA
:1003D30033F4C9FA2275F008E4C833C8C933C93302
:1003E300C99AC99B5004C92AC93BD5F0ECFBC83351
:1003F300F4C8E4C9FA2212043920F01430E72B744C
:10040300FFFCFBFA747F8022E4FCFBFA7480801A01
:10041300B48008BC00F2BB00EF800F50EBF9E4C3DB
:100423009AFAE49BFBE49CFCE499C6CC18C6CB186F
:10043300C6CA18C6F922E4C9C608CAC608CBC6D3B9
:10044300330308CCC63392F0C3947F402E941840F4
:1004530019C9B90704CACBCC225025C309CA33CA68
:10046300CB33CBCC33CC33D9F422F4600DC9CCC31A
:1004730013CB13CBCA13CAD9F6CC22E4FCFBFA2262
:1004830014FCFBFA22080808EAC0E0EBC0E086F09F
:10049300E7A4FA180986F0E7A42AFA180986F0E710
:1004A300A42AFA180986F0E7A42AFA1986F0E7A421
:1004B300FBE5F02AFA190886F0E7A42BFBE5F03AEE
:1004C300FA190886F0E7A42BFBE5F03AFA181809A5
:1004D30086F0E7A4C5F02BFBE43AFA1908E7C5F068
:1004E300C6A426F6E5F03BFBE43AFA1886F0E7A447
:1004F300F6E5F00826F6E43B08F6E43A08F6D0E021
:10050300FBD0E0FA22E4CFC0E0E4CEC0E0E4CDC00B
:10051300E0E4CCC0E075F020E626F608E633F60802
:10052300E633F608E633F6181818EC33FCED33FD22
:10053300EE33FEEF33FFC3EC9709ED9709EE97090E
:10054300EF97191919400FFFEC97FC09ED97FD0977
:10055300EE97FE191906D5F0BFECF709EDF709EE92
:10056300F709EFF7191919D0E0FCD0E0FDD0E0FE50
:10057300D0E0FF222518C582C0E0E51934FFC5830A
:10058300C0E0E518C3958224F810AF088583198568
:1005930082188008858319858218D2AFCEF0A3E52F
:1005A30020F0A37808E608F0A3DEFAEFF0A3E581D4
:1005B30024FAF8E608F0A3E608F0A3E608F0A30897
:1005C30008E608F0A3E608F0A315811581D0E0FE44
:1005D300D0E0F8158115811581E8C0E0EEC0E02276
:1005E300120D8DB90003020635E490030178667994
:1005F300098002F0A3D8FCD9FA781A9000867A0110
:10060300BA00028007E493A3F608DAF97A667B0B53
:10061300900087786579018015E493A3AD82AE835A
:100623008A828B83F0A3AA82AB838D828E83D8E9DF
:10063300D9E77582AF7583AE7403120A9B7582EB9B
:1006430075831E7400120A9BC0D02518C582C0E0B2
:10065300E51934FFC583C0E0E518C3958224F31080
:10066300AF088583198582188008858319858218C8
:10067300D2AFC8F0A3E9F0A3EAF0A3EBF0A37908A3
:10068300E709F0A3D8FAECF0A3EDF0A3EEF0A3EFA3
:10069300F0A3D0E0F0A3D0E0F0A3D0E0F0A3E520F6
:1006A300F0A3E5F0F0A322E9799EC608CAC608CBF9
:1006B300C608CCC6C370207996CACBCC7019798E84
:1006C300CBCC70137986CC700EF9802ACA33CACB8F
:1006D30033CBCC33CC331930E7F2CCCBCA33501401
:1006E3007004EA30E00DE4CA3ACACB3BCBCC3CCC35
:1006F300500209C3E913C6CC182313C6CB18C6CAC4
:1007030018C6F922851983851882E0C0E0A3E0F9B1
:10071300A3E0FAA3E0FBA37808E0F608A3DFFAE07E
:10072300FCA3E0FDA3E0FEA3E0FFA3E0C0E0A3E0A1
:10073300C0E0A3E0F5D0A3E0F520A3E0A3F5F0101B
:10074300AF088583198582188008858319858218E7
:10075300D2AFD082D083D0E0F8D0E032C0E074F2E0
:1007630012064BA2AFE433FED2AFE589A2E15003F8
:10077300121507758900C2C5751A00EEF8EEA2E0DE
:1007830092AF7F01020707C0E074F212064BA2AFDB
:10079300E433FED2AFE58BA2E05003121507758B4D
:1007A30000C2E8751A00EEF8EEA2E092AF7F0102F4
:1007B3000707E4730C75F0108E218F22858226853E
:1007C3008325851882851983E0CEA3E0CF85268211
:1007D300852583EBC9EAC8EDCBECCAC3E833C8E986
:1007E30033C9EA33CAEB33CBC3EA9EF524EB9FF557
:1007F30023B35004AB23AA24EC33CCED33CDD5F093
:10080300DAAE21AF2222D083D082ECC0E0EDC0E08B
:10081300E493A3FCE493A3FDED4C600D1208E1EC1B
:1008230024FFFCED34FFFD80EFE493A3FCE493A3EA
:10083300FDED4C600D12097EEC24FFFCED34FFFD51
:1008430080EFD0E0FDD0E0FCE493A3C0E0E493C0EC
:10085300E022D083D082E9C0E0E493A3C386F0C54D
:10086300F095F0F908E493A386F0C5F095F0700BCA
:10087300E493A3C3994005E9048002A3E475F0025D
:10088300A42582F582E5F03583F583D0E0F9E4937E
:10089300A3C0E0E493C0E022851983851882E0A316
:1008A300FEE0A3F5207808E0A3F608DFFAE0A3FF53
:1008B300E0A3C0E0E0A3C0E0E0A3C0E0E0A3C0E0A9
:1008C300E0A3C0E010AF08858218858319800885EE
:1008D3008218858319D2AFD083D082020AA1C0E0E7
:1008E300C3E49396087401939618400FE4936670DB
:1008F3000808740193661870007019A3A3C3E493E6
:1009030096087401939618A3A3400DD0E0D0E0D0CD
:10091300E0020845A3A3A3A3A3A3D0E02274048009
:100923000474028000CCC0E0EDC0E0E518C39CCCA9
:10093300AD1950011D10AF068C188D1980068C1847
:100943008D19D2AF120A1DD0E0FDD0E0FC22740253
:100953008000CCC0E0EDC0E0E518C39CCCAD1950DD
:10096300011D10AF068C188D1980068C188D19D2B5
:10097300AF1209FBD0E0FDD0E0FC22C0E0C0F0885C
:10098300F0E4936670080874019366187000A8F089
:10099300A3A3700BD0F0D0E0D0E0D0E0020845A3D1
:1009A300A3D0F0D0E022D083D082CCC0E0E493A3E4
:1009B3006006120A7C1470FAE493A36006120B8398
:1009C3001470FAD0E0FCE493A3C0E0E493C0E02207
:1009D300C0E0C0D0E8C0E0E9C0E0A2AFE433F8D2A1
:1009E300AFC2C7751A00E8F9E8A2E092AFD0E0F908
:1009F300D0E0F8D0D0D0E032CAC0E0E493A3C582FF
:100A0300CCC582C583CDC583F0A3C582CCC582C5C1
:100A130083CDC583DAE5D0E0CA22CAC0E0E0A3C52E
:100A230082CCC582C583CDC583F0A3C582CCC582E4
:100A3300C583CDC583DAE6D0E0CA22700908080869
:100A4300226016181818C6C333C608C633C608C6AC
:100A530033C608C633C6D5E0EA22C008C3E096F51C
:100A63000808A3E096420808A3E096420808A3E01A
:100A73009645087001D3D00822C0E0E493A3D39C29
:100A83005010E493A3C39C400AD0E0D0E0D0E0022E
:100A930009C6A3A3A3D0E022C09FF59FE473D09F10
:100AA30022D083D082C09FE493C0E0740193C0E05E
:100AB300740293F59F227404800A740380067402FF
:100AC30080027401C0E0F404120AD4D0E0120D5C79
:100AD300222518F58210AF08F518400C1519800867
:100AE300F51840021519D2AF8519832200C0D0250D
:100AF3001810AF08F518500C05198008F5185002A6
:100B03000519D2AFD0D022BB0102E722C082C08335
:100B130089828A83BB0003E08002E493D083D0827E
:100B2300226016080808C6C313C618C613C618C61B
:100B330013C618C613C6D5E0EA222518F8E43519FA
:100B4300F9222518FAE43519FB222518FCE4351996
:100B5300FD22C3E0C696F608A3E0C696F608A3E016
:100B6300C696F608A3E0C696F622251810AF08F538
:100B730018400C15198008F51840021519D2AF2238
:100B8300C0E0E493A36C7009D0E0D0E0D0E00209A8
:100B9300C6A3A3D0E022E066701008A3E066700A43
:100BA30008A3E066700408A3E06622E766701008F5
:100BB30009E766700A0809E76670040809E7662210
:100BC300C3E09608A3E09608A3E09608A3E096A2E4
:100BD300D265D03322C3E697F60809E697F60809EB
:100BE300E697F60809E697F622181818E608460865
:100BF3007009E626087005E633F42208221919194C
:100C0300E70947097009E727097005E733F4220963
:100C130022C3E096F008A3E096F008A3E096F0085C
:100C2300A3E096F022E026F008A3E036F008A3E064
:100C330036F008A3E036F022E026F608A3E036F605
:100C430008A3E036F608A3E036F622E627F60809FD
:100C5300E637F60809E637F60809E637F6227004A0
:100C630022600D18C6C333C608C633C6D5E0F418D0
:100C730022E647F60809E647F60809E647F60809B3
:100C8300E647F622E657F60809E657F60809E65757
:100C9300F60809E657F622E056F608A3E056F608EA
:100CA300A3E056F608A3E056F622E056F008A3E0C8
:100CB30056F008A3E056F008A3E056F022E4C396EA
:100CC300F608E496F608E496F608E496F622C3E0FE
:100CD3009608A3E09608A3E09608A3E09622C6F43C
:100CE300C608C6F4C608C6F4C608C6F4C622C3E7D7
:100CF300960809E7960809E7960809E7962275D04A
:100D03000075813F751801751903000205E3E608B4
:100D13004608C3134608336002E633F422E7094763
:100D230009C3134709336002E733F422600C08C692
:100D3300C313C618C613C6D5E0F422E6F008A3E62B
:100D4300F008A3E6F008A3E6F022E0F608A3E0F635
:100D530008A3E0F608A3E0F622CAC0E0E6F0A30881
:100D6300DAFAD0E0FA22E0FAA3E0FBA3E0FCA3E086
:100D7300FD22E8F0A3E9F0A3EAF0A3EBF022E0F808
:100D8300A3E0F9A3E0FAA3E0FB22E5C754F844018A
:100D9300F5C77901222518F582E43519F58322E791
:100DA3002719471947194722E626184618461846B1
:100DB30022C2AF75D69F02000022120AA456640015
:100DC300120AA4356500120AA4446500120AA44F4E
:100DD3006500120AA4416600120AA4526600120AB0
:100DE300A4CA6600120AA4526700120AA4B66700D6
:100DF300120AA49B6800120AA4CC6800120AA41A5F
:100E03006900120AA4236900120AA4236B00120AC0
:100E1300A4706C00120AA4EF6C00120AA4C36E0043
:100E2300120AA4207100120AA4347100120AA43E0B
:100E33007100120AA4487100120AA4527100120A26
:100E4300A45C7100120AA4667100120AA4957100D1
:100E5300120AA4CB7100120AA4D67100120AA4FAD2
:100E63007100120AA41E7200120AA47F7200120AF1
:100E7300A4CA7200120AA4E67200120AA4507300F4
:100E8300120AA49C7300120AA4E47300120AA46455
:100E93007400120AA4287600120AA4E47600120A47
:100EA300A4AD7700120AA4397A00120AA48E7A003C
:100EB300120AA4B67A00120AA4DD7B00120AA42146
:100EC3007C00120AA4717C00120AA4267D00120A77
:100ED300A4D07D00120AA4447E00120AA4E47E007A
:100EE300120AA4767F00120AA4CA2300120AA4FCE1
:100EF3002300120AA4092600120AA45C2600120A7F
:100F0300A4A22600120AA4352700120AA49A2700D5
:100F1300120AA4DA2700120AA43F2900120AA43BEA
:100F23002A00120AA4052E00120AA4A02E00120AF7
:100F3300A4A02F00120AA4033000120AA42F310028
:100F4300120AA4C13300120AA44D3400120AA45792
:100F53003400120AA4843400120AA4573500120A7A
:100F6300A4153600120AA43E3600120AA46B3600FA
:100F7300120AA4A83800120AA47C3900120AA4BBDE
:100F83003900120AA43C3A00120AA4FE3A00120ADB
:100F9300A4303B00120AA4773B00120AA4B33B001F
:100FA300120AA4023C00120AA4563C00120AA4D05E
:100FB3003C00120AA4353D00120AA49C3D00120A0B
:100FC300A4263F00120AA4F33F00120AA40541001D
:100FD300120AA4FB4300120AA4424600120AA4E523
:100FE3004600120AA4234700120AA4FC4800120A6E
:100FF300A40F4900120AA4184900120AA4214900A7
:10100300120AA4364900120AA4554900120AA4067A
:101013004A00120AA4594A00120AA4634A00120A97
:10102300A4E54A00120AA4924B00120AA4A14C00A0
:10103300120AA4B94D00120AA4B14E00120AA4C8A0
:101043004E00120AA4054F00120AA4234F00120AED
:10105300A4764F00120AA4A84F00120AA448500015
:10106300120AA4535100120AA4DC5100120AA45616
:101073005200120AA4F25200120AA42F5400120AB8
:10108300A4095500120AA4745500120AA43D56007F
:10109300120AA4605600120AA4455700120AA48932
:1010A3005700120AA4E15700120AA43F5800120A7B
:1010B300A4635800120AA48E5800120AA4D558003B
:1010C300120AA4F95800120AA4725900120AA4DCE5
:1010D3005A00120AA41A5B00120AA4435B00120A04
:1010E300A4165C00120AA4085D00120AA4EFC4034C
:1010F300120AA42EC503120AA4B68101120AA41A65
:101103008201120AA4788201120AA4C38201120A7C
:10111300A4DE8201120AA4058301120AA422830118
:10112300120AA42E8301120AA4D28401120AA4EB88
:101133008401120AA4678501120AA47A8501120A9E
:10114300A48A8501120AA4308601120AA4A0870189
:10115300120AA4B38801120AA4538901120AA45DD6
:101163008901120AA4CB8901120AA4DC8901120A9B
:10117300A41B8A01120AA4498A01120AA4168B012C
:10118300120AA46D8B01120AA4B28B01120AA408DD
:101193008C01120AA4268C01120AA4748C01120A6F
:1011A300A4428D01120AA4908D01120AA4D28D01CA
:1011B300120AA4558E01120AA47F8E01120AA4B545
:1011C3008E01120AA4C48E01120AA4228F01120AEC
:1011D300A49A8F01120AA4DB8F01120AA42A900198
:1011E300120AA4559001120AA46F9001120AA4894D
:1011F3009001120AA45E9101120AA4689101120AD5
:10120300A4A39101120AA4B39101120AA4BC9101EF
:10121300120AA40D9201120AA4219201120AA43FF8
:101223009301120AA4569301120AA46B9301120AA2
:10123300A4059401120AA4849401120AA427950117
:10124300120AA4329501120AA47C9601120AA498E8
:101253009601120AA4EC9601120AA45A9701120AE3
:10126300A4A69701120AA4C09701120AA402980126
:10127300120AA4659A01120AA4FD9A01120AA4741F
:101283009B01120AA4BA9D01120AA4D29D01120A5B
:10129300A4D59D01120AA4E19D01120AA4F59D01A2
:1012A300120AA4FD9D01120AA4349E01120AA42865
:1012B3009F01120AA4B29F01120AA434A001120AC8
:1012C300A4A9A001120AA481A101120AA4A3A10145
:1012D300120AA43AA201120AA446A201120AA4A362
:1012E300A201120AA4A6A201120AA4D3A201120AFD
:1012F300A4E8A201120AA457A301120AA4A3A401F9
:10130300120AA4B6A501120AA441A601120AA45402
:10131300A701120AA41EA801120AA44FA801120AC7
:10132300A475A801120AA47EA801120AA4ADA801FB
:10133300120AA45DA901120AA40DAA01120AA4802B
:10134300AA01120AA430AB01120AA4A3AB01120A28
:10135300A4E2AB01120AA42BAC01120AA460AC01F3
:10136300120AA41CEE01120AA4BAEE01120AA4097D
:10137300EF01120AA47EEF01120AA41AF001120A65
:10138300A4FBF201120AA476F501120AA48CF90156
:10139300120AA4C0F901120AA4EEF901120AA472F6
:1013A300FA01120AA4BAFA01120AA4E3FA01120A10
:1013B300A429FB01120AA454FB01120AA49FFB01F6
:1013C300120AA457AD02120AA4DFAD02120AA449FD
:1013D300AE02120AA4BDAE02120AA485B102120A19
:1013E300A4A1B102120AA4FAB102120AA4E9B20238
:1013F300120AA453B302120AA402B502120AA45D8C
:10140300B602120AA4C5B602120AA438B702120A17
:10141300A40AB802120AA464B802120AA4AEB8025B
:10142300120AA4ADBA02120AA4CBBB02120AA4F197
:10143300BC02120AA4FEBD02120AA46CBE02120A66
:10144300A4C6BE02120AA400BF02120AA49EBF02CF
:10145300120AA465C002120AA404C403120AA41641
:10146300FC01120AA483FC01120AA4D8FC01120A8B
:10147300A438FD01120AA4CBFD01120AA43EFE0109
:10148300120AA441FE01120AA444FE01120AA4474F
:10149300FE01120AA4FBFE01120AA46CFF01120A48
:1014A300A483C403120AA494C403120AA4D5C403D4
:1014B300120AA444B303120AA452B303120AA47C6B
:1014C300C503120AA40EBE03120AA41EBE03120A07
:1014D300A438BE03120AA434BF03120AA46FA403E0
:1014E300120AA40AA503120AA400A703120AA47DE0
:1014F300BB03120AA4B0BB03120AA421BC03120A41
:10150300A435BC03120AA482BC03120AA4C0BC0300
:10151300120AA4C3BC03120AA47EFB02120AA497F4
:10152300FB02120AA429FC02120AA427FD02120AD2
:10153300A418FF02120AA478FF02120AA4E1FF0210
:10154300120AA4F87F00120AA400B103120AA438F5
:10155300B103120AA4ABB203120AA441B303120AE1
:10156300A438F402120AA472F402120AA401F602C5
:10157300120AA460F602120AA48CF602120AA4A5A7
:10158300F602120AA4C95D00120AA49FF702120A06
:10159300A4CBF802120AA493F902120AA4A0FA0235
:1015A300120AA4D2FA02120AA4FDFA02120AA42809
:1015B300FB02120AA453FB02120AA417B503120A70
:1015C300A440B503120AA454B503120AA49EB5039A
:1015D300120AA4DDB503120AA41CB603120AA42D31
:1015E300B603120AA490B603120AA493B603120A0E
:1015F300A4A1B603120AA47D6300120AA40BA103DB
:10160300120AA445A103120AA4A2A103120AA4D098
:10161300A103120AA41DA203120AA45BA203120AC5
:10162300A496A203120AA4C0A203120AA4E6A20368
:10163300120AA449A303120AA477A303120AA40A51
:10164300A403120AA422A403120AA437A403120AAD
:10165300A438C503120AA455C503120AA479C50305
:10166300120AA4008003120AA4948103120AA4A2FA
:101673008103120AA4BE8103120AA4E38103120A9E
:10168300A4408203120AA49C8203120AA431830396
:10169300120AA4B68303120AA4478403120AA4A35A
:1016A3008403120AA4DE8403120AA4D08503120A57
:1016B300A4E48503120AA4F78503120AA419860376
:1016C300120AA406C203120AA437C203120AA468A8
:1016D300C203120AA495C203120AA4619603120A52
:1016E300A4D09603120AA4F59603120AA4989703AA
:1016F300120AA4829D03120AA4A59D03120AA4B789
:101703009D03120AA4C59D03120AA4EE9D03120AA7
:10171300A4069E03120AA41E9E03120AA4369E0365
:10172300120AA4E29E03120AA45F9F03120AA4935F
:101733009F03120AA4E89F03120AA43DA003120AFE
:10174300A46BA003120AA479A003120AA490A00315
:10175300120AA4FAA003120AA483C303120AA4F26E
:10176300C303120AA41FD402120AA468D402120AE1
:10177300A494D402120AA4ADD402120AA4CDD402B2
:10178300120AA437D502120AA471D502120AA4B808
:10179300DA02120AA481DC02120AA4C7DC02120ACA
:1017A300A434DD02120AA4E2DE02120AA412DF024A
:1017B300120AA42CDF02120AA440DF02120AA49424
:1017C300DF02120AA4F7DF02120AA40CE002120AD3
:1017D300A4F8B903120AA40FBA03120AA438BA036D
:1017E300120AA45EBA03120AA48BBA03120AA4BB98
:1017F300BA03120AA4DCBA03120AA413BB03120A23
:10180300A43BBB03120AA4C6C203120AA411C30356
:10181300120AA41B9203120AA4329203120AA49C72
:101823009303120AA4D19303120AA4F99303120A8D
:10183300A4269403120AA43F9403120AA4809403D7
:10184300120AA4FE9403120AA44A9503120AA49E40
:101853009503120AA4D59503120AA4079603120A44
:10186300A45FB803120AA471B803120AA491B903BE
:10187300120AA494B903120AA45FC003120AA4882B
:10188300C003120AA4A8C003120AA4C8C003120A00
:10189300A420C103120AA436C103120AA428EB022E
:1018A300120AA46EEB02120AA4EAEB02120AA40BB8
:1018B300EC02120AA42FED02120AA43DED02120A51
:1018C300A499ED02120AA4CCED02120AA4DFED02E0
:1018D300120AA46AEE02120AA403EF02120AA45126
:1018E300EF02120AA4CEEF02120AA43AF002120A7D
:1018F300A473F002120AA4FBF002120AA481F102FB
:10190300120AA4D8F102120AA435F202120AA44759
:10191300F202120AA459F202120AA47FF202120A74
:10192300A488F202120AA4D0F302120AA4C3B603D3
:10193300120AA4D2B703120AA41BA703120AA460B3
:10194300A703120AA4ADA703120AA44AA903120A01
:10195300A40ED301120AA4C4D401120AA413D501FC
:10196300120AA482D701120AA4E7D701120AA4E734
:10197300DA01120AA449DB01120AA47DDD01120A6D
:10198300A469DE01120AA4CCDE01120AA464DF01F9
:10199300120AA407E001120AA452E001120AA49A4F
:1019A300E001120AA4E9E001120AA4B7E201120A53
:1019B300A46FE401120AA43DE701120AA47FE70120
:1019C300120AA4DBE701120AA4EAE701120AA452ED
:1019D300E801120AA402E901120AA4E0EC01120AC6
:1019E300A4A7ED01120AA444C103120AA45FC10310
:1019F300120AA46FC103120AA4C6C103120AA45F88
:101A03008C03120AA47F8C03120AA46F8D03120A9B
:101A1300A4B88D03120AA4D88D03120AA4168E0348
:101A2300120AA4718E03120AA4AF8E03120AA4F938
:101A33008E03120AA4A19103120AA40A9203120AA2
:101A4300A4D1BC03120AA458BD03120AA4A9BD035E
:101A5300120AA4ECBD03120AA446E002120AA44C23
:101A6300E002120AA4BDE002120AA42CE302120A45
:101A7300A4B9E302120AA486E402120AA4C9E40286
:101A8300120AA4FAE402120AA40EE602120AA41F1E
:101A9300E602120AA434E602120AA445E602120A76
:101AA300A453E602120AA464E602120AA487E60219
:101AB300120AA401E902120AA419EA02120AA4D81A
:101AC300EA02120AA4008002120AA46A8002120A1D
:101AD300A47B8002120AA4898102120AA451820201
:101AE300120AA4B78202120AA4BA8202120AA4DB5F
:101AF3008202120AA4A68502120AA45C8602120AB2
:101B0300A49B8602120AA4A08802120AA4DC8802FB
:101B1300120AA4318902120AA4768902120AA4AD18
:101B23008902120AA4EA8902120AA4028A02120A88
:101B3300A48D8A02120AA4EB8A02120AA4478B021A
:101B4300120AA4878C02120AA4C38F02120AA407E2
:101B53009102120AA4659102120AA46A9202120A5D
:101B6300A48E9202120AA4919202120AA4A69202CD
:101B7300120AA4A99202120AA4389302120AA475A3
:101B83009302120AA4AC9302120AA4F49302120A57
:101B9300A4F79302120AA4379402120AA45E9402D1
:101BA300120AA4C09402120AA43A9502120AA47853
:101BB3009702120AA43ABF03120AA44BBF03120AE4
:101BC300A4CEBF03120AA4E97F00120AA4E9C0024B
:101BD300120AA40CC102120AA41DC102120AA417FC
:101BE300C202120AA494C202120AA41DC302120A58
:101BF300A4AFC302120AA45FC402120AA40FC5024F
:101C0300120AA4F3C502120AA4B8C602120AA41D3A
:101C1300C702120AA4B0CD02120AA48CD002120A7F
:101C2300A4C8D002120AA4D2D102120AA458D30221
:101C3300120AA4AF9902120AA4819A02120AA406F4
:101C43009B02120AA4C59B02120AA4679C02120AF1
:101C5300A4E39E02120AA4799F02120AA468A102B5
:101C6300120AA48FA302120AA47AA402120AA40AD3
:101C7300A802120AA402A902120AA493A902120A30
:101C8300A441AA02120AA4A5AB02120AA43EAC0301
:101C9300120AA4A7AC03120AA4F5AC03120AA48D7A
:101CA300AD03120AA4D4AD03120AA45EAE03120A52
:101CB300A48EAE03120AA49CAE03120AA4AAAE0316
:101CC300120AA4BBA903120AA433AA03120AA46723
:101CD300AA03120AA43BAB03120AA4A9AB03120A78
:101CE300A4F69903120AA4159A03120AA4729A037A
:101CF300120AA4939A03120AA4BF9A03120AA4DE37
:101D03009A03120AA4EA9B03120AA4FA9B03120A77
:101D1300A4169C03120AA4439D03120AA4539D0311
:101D2300120AA4619D03120AA46F9D03120AA4520E
:101D33008603120AA4D48B03120AA4D98B03120AB2
:101D4300A4DE8B03120AA42FAF03120AA447AF0326
:101D5300120AA4FDB003120AA4C7FF01120AA4DDEC
:101D6300D201120AA4B8D201120AA4F1D101120AB3
:101D7300A45ED101120AA40AD001120AA489CD01DA
:101D8300120AA40ECD01120AA4C7CC01120AA41A86
:101D9300C901120AA4186300120AA4506200120AAD
:101DA300A4EAC801120AA4B7C801120AA4A46100D4
:101DB300120AA4556100120AA493C801120AA412BC
:101DC300C801120AA4B3C701120AA42CC601120A3D
:101DD300A4B9C501120AA4B6C501120AA4DAC40142
:101DE300120AA4B4C401120AA4F0C301120AA42F54
:101DF300C201120AA4C2C101120AA493C101120AA8
:101E0300A490C101120AA47BC101120AA43FC1011B
:101E1300120AA425C101120AA440C001120AA42C6B
:101E23006100120AA4DD6000120AA49F6000120A76
:101E3300A47A6000120AA4616000120AA4D25F00AF
:101E4300120AA4FFBF01120AA4CCBF01120AA47193
:101E5300BF01120AA4165F00120AA440BF01120AAE
:101E6300A409BC01120AA417BB01120AA4DBB9011D
:101E7300120AA48D5E00120AA4B6B801120AA4B213
:101E8300B603120AA433B801120AA4F8B701120A5E
:101E9300A4A9B701120AA49DB701120AA406B701A7
:101EA300120AA4D4B501120AA47BB301120AA4082E
:101EB300B101120AA4BCB001120AA49EAF01120A16
:101EC300A433AF01120AA45DAE01120AA42EAD0120
:101ED300120AA4FAAC01120AA4235E00120AA4C8CF
:101EE300AC01120AA4C3F60200000080FB8F0001BC
:101EF300005C0B87000100C50B24000200980B2532
:101F03000002009A0B260002009C0B270002009E91
:101F13000B28000100A00B29000100A10B84000481
:101F230000A20B86000100A60B2A000100A70B2BC1
:101F3300000100A80B2C000100AB0B2D000800448E
:101F43000B2E000100AC0B2F000100AD0B30000184
:101F530000AE0B31000100AF0B320001004C0B331C
:101F63000001004D0B34000100B00B360001004EA0
:101F73000B38000100B10B39000100AA0B830002EA
:101F830000C30B63000100590B640001003B0B65A8
:101F9300000100A90B6D0001005A0B710008003C01
:101FA3000B66000100C20B43000100B30B440002A7
:101FB30000B40B45000100B60B46000200B70B4707
:101FC300000800510B48000100B90B4B000100BA97
:101FD3000B04000100C60BA1000100C90B3700016F
:101FE30000C80B88000100C70B3C0001004F0B3DEC
:101FF300000100B20B49000200BB0B670001005B4C
:102003000B4D000200BD0B4E000100BF0B4F000241
:1020130000C00B3E000100500B0000000000000058
:102023000136360101000102010001030100010430
:1020330001060605020000070100340801000F092C
:102043000401010D0100FF0E080000170200001932
:102053000100FF1A0100011B0100FE1C0100081D05
:102063000200001F010001200100012102000023E2
:1020730001000F24020000260100012701000828A7
:102083000200FF2A0100072B0102402C0100002D52
:102093000100012E0100012F0100FF30010B1C3153
:1020A3000800003A0100083B01000F3C0100013D1C
:1020B3000100FF3E04000042040000460400004A01
:1020C3000400004E04000052040000560400005AAD
:1020D3000400005E20FFFF36000100060000000F31
:1020E3000000000000000000000000000003FFFFEC
:1020F30000000403FFFF0000FFFF0FF4010005C40D
:10210300040320000100000B000000000000000099
:1021130003010F00000000000000000000000000A9
:1021230000000000000000000000000000000000AC
:10213300000000000000000000000000000000009C
:10214300000000000000000000000000000000008C
:1021530000000000000103710301030103010301F7
:10216300030103220302030103100300030003001E
:1021730003000300030003000342030003240306D8
:10218300030003000304031203250323032503238E
:1021930003040304030003000300034403000300D8
:1021A30003230300036503210035038103000305B3
:1021B3000300030003000300032503230303027149
:1021C3000230016002110270020102020202028067
:1021D30002100261023A004100630273027202625A
:1021E300024302000213023800000200020402123A
:1021F3000200020002000200020402040237003758
:10220300003C0244020002390000020002650200A1
:1022130002350281020002050282028302000203E8
:102223000071003001600011007000310220035082
:10223300048000100061000000140063007300724A
:1022430000620043000000130006000000000004C9
:10225300001200000000000000000004000400372A
:102263000037003C0244000000000000000000654D
:10227300000000350081000000050000008300001D
:10228300000101710101010101110101013101018C
:102293000101018001100161013B0014006301731E
:1022A300017201620143010001130106013D013581
:1022B30000040112010001000100010001040104F6
:1022C30001330133013C01440132013600000100B6
:1022D30001650100013500810100010501820183CF
:1022E30001000107ECFDFDFDECDCDCCCBCACAC9CDF
:1022F3009C8C7C7C6C6C5C5C5C4C4C3C3C2C2C1C4B
:102303001C03EAF5E5D5D5C5B5A595958585757500
:102313006565555545453535252515150501005781
:102323001C0200F11B0300F71B0400FD1B05000347
:102333001C06000F1CFFFF00000A5B0F022B0F059A
:102343003D0F07310F0C130F0D1F0FFF0000001679
:102353000F00000B150B020002220F3300000E0CBE
:102363000E020B040B0A0708000F000119161816BA
:10237300161823030000034A49434E181A25050281
:10238300303017181921301B1D1F3000393D3F37DE
:102393003C3C362C442D303016181920231A1C1EB1
:1023A3003002040201010101090200BE040A3C00DB
:1023B300E8033C000E000A04090408FF1E1E150C66
:1023C3000404050008032874F7120577E99003B4A1
:1023D300F0900369E4F01218619003B9E4F0A3F0FC
:1023E3009003B5F0A3F0121099121867900338E424
:1023F300F0A3F0121D17023C9074F2120577EAFE67
:10240300EBFF548060689003B4E0F91218D38A0894
:102413008B09EA4509604F7C0080010CEC75F003E1
:10242300A4F8A9F0743C28F582742339F583E49366
:10243300F4602CE493F88508828B83E06870DCAA4F
:1024430008EC75F003A4F8743D28F582742339F57C
:1024530083E493C0E0740193F583D0821207B5AA95
:1024630008AB091218C1EEFAEF64800225F4EF54A9
:1024730020601E120FB58A088B09EA4509600A120B
:102483000F1FAA08AB091218C1EEFAEF6420022548
:10249300F4EEA2E0501F90036EE0640F7011790018
:1024A300120EF5E96009900B98124F72120F0DEEA0
:1024B30064010225C6542070030225CA750C007AF4
:1024C300207B009003B4E0F9121A29EA4B4C4D70BB
:1024D3001790805D1209207A207B009003B4E0F905
:1024E300121A1D7404120AEF7C0079047A007B002F
:1024F300120F918A088B098018850882850983A3A6
:10250300A3A3A3A3A3A3A3A37401F0850A08850B24
:1025130009E5084509700302259E7C007904AA0891
:10252300AB09120F918A0A8B0B750C01E508240481
:10253300F8E43509F988828983125CE412293AF8B0
:10254300A3E0F9E84970C4850882850983A3A3A39E
:10255300A3A3A3A3A3A3A3E06401709D850882851D
:102563000983A3A3A3A3A3A3E05404708C850882C7
:10257300850983A3A3A3A3A3A3A3A3A37406F01210
:1025830053E5124AA7700374B7F0E0FA8508828511
:10259300098312272F120F0702250E120F617C00E9
:1025A30079017A007B00120F918B09EA45097010BB
:1025B300E50C700C7A207B009003B4E0F9121A2327
:1025C300EE6420FAEF802AEF5402600A121093EEB1
:1025D300FAEF6402801BEF54046019124B7B124A1A
:1025E300CB7901900367124F72120E2FEEFAEF644C
:1025F30004FB80047A007B008007A90A7403120A93
:10260300EF7F0602089BC082C08374EA120B6D7CC5
:10261300167D007900AA18AB191218A97408120DB7
:10262300987402F090035D124EA1122648740912A9
:102633000D98124ACB7413120D98E4124A80121D9E
:102643000B7416800EE8F0A3E9F09003671253F8B9
:10265300227408120AEF02492F74F712057774DF08
:10266300120B6DEAFEEBFFEE4F602DAC18AD1912A5
:102673000FD37406120D98E0601E7417120D98E0C4
:10268300FD7401120D98E0FCEEFAEFFB7900121DC8
:1026930065E9600479A4800279007421023C8D7499
:1026A300F7120577EAFEEBFF8E828F83A3A3A3A322
:1026B300A3A3E05440601C8E828F83123971FAA366
:1026C300E0FB12104BE960067AFF7BFF8015125482
:1026D300C4800390035D124F7274FE6A700374FF2B
:1026E3006B60351254C412556E12104BE98E828FF3
:1026F3008360051235E480031235F7123600121D8C
:1027030011E9F5087015EE4F60097901EEFAEFFB58
:10271300120F6DA908023C907508CDAA088E828F0E
:102723008312272F120F07E960DC80E7125C89E030
:10273300F92274F6120577E9FEEAFF7A0F7B00129D
:1027430018BBEA4B601F8A828B83740CF0EEA3A341
:10275300F0EF8A828B83123A319003B4E0F91218B6
:10276300C77900802FEEF9120F978A088B09A80802
:10277300A909E849601C88828983A3A3A3A3A3A30F
:10278300A3A3A37406125955E0F9120EB9EEF91278
:102793000F737910024A7174F412057790036EE097
:1027A300640F7030EA4B602C900369E064086005A5
:1027B300E06404701F8A088B09E4F50AF50B7808B6
:1027C300120AB97A017B009003B4E0F9121A177464
:1027D30004120AEF022E9B74F412057774FC120B99
:1027E3006DEAFEEBFF8E828F83A3A3E0F9120F97AE
:1027F3008A088B09EA450970030229298E828F838F
:10280300A3A882A983E0C0E0EA240B124855D0E0D4
:1028130012293A64F160288E828F83A3E064CD602D
:102823001E8E828F83A3E0641A60148E828F83A32B
:10283300E064E9600A8E828F83A3E064E1704079EB
:1028430000120F6DE96038E5082404F50AE4350940
:10285300F50B850882850983A3A3A3A3A3A3124E23
:10286300848E828F83A3E0F9850A82850B83124FBE
:1028730072121873850A82850B8312556E80768EC9
:10288300828F83A3E0C0E07402120D98D0E012336C
:10289300B5125BEB123388C0E07403120D98D0E0DD
:1028A300F0E508240CF582E4124AA7AA18AB1970C4
:1028B30005120E1780031210337402120D98E06490
:1028C300E97032850882850983123127750A0178F8
:1028D3000A120AC5750AE9780A120AC512387F1264
:1028E300339CFCA3E0FD8A828B83124F7212100982
:1028F3007402120AEF850882850983A3A3A3A3A305
:10290300A3A3A3A3E064027012850882850983A3AD
:10291300A3A3A3A3A3A3A3A37406F08E828F83A36D
:10292300A3E0F9120F73120F61900B9C124F7212F6
:102933000F0D7404022E98125965E02274F41205E7
:1029430077EAFEEBFF7508008E828F83A3A3A3A310
:10295300A3E0603B750808124F6579FF121D898B50
:102963000BEA450B601075082C8E828F83A3A3A3FB
:10297300A3A3E0D2E0F08E828F83A3A3A3A3A3E05B
:10298300540364016003022A36430811022A36EE17
:102993002418123F1E6036EE241A123F1E6003F401
:1029A30070121256277003A3E0696003022A36757A
:1029B3000822807FEE241B124E7EEE241A123F1E45
:1029C300FAEE2419123F1EF9120EA78066124F6504
:1029D30012104BE964027003750801125627700345
:1029E300A3E0697006E508D2E1F508E50860158EF5
:1029F300828F83A3A3E07006E508D2E58004E5088F
:102A0300D2E6F508124F6512104BE964017006E532
:102A130008D2E0F5088E828F83A3A3E06015EE242D
:102A23001D12396BF9121039E964016006E508C219
:102A3300E0F508A908022E9B74F012057774DC12E6
:102A43000B6DEAFEEBFF8E828F83A3A3A3A3E0604B
:102A530011900B9A124FA26009900B9A124F7212A7
:102A63000F0D7403120B4D8E828F83A3A3A3124CFD
:102A73007B124F70120FD3E97003022BC2790174DA
:102A830005120D98E0C394024001197407120D98C2
:102A9300E0C3940240027900740C120D98E064F8CC
:102AA3007003A3E0F47003022BC2740C120D98E0C0
:102AB30064F97003A3E0F47003022BC2740C120DCB
:102AC30098E064FA7003A3E0F47003022BC2740C61
:102AD300120D98E064FB7003A3E0F47003022BC2B1
:102AE3007406120D98E0F8900357E0686003022B18
:102AF300C2E9A2E04003022BC2EE24131253EE7488
:102B030022120D98124ADE241C1253EE7410120D79
:102B130098124ACB7409120D98E0601D741A120DB5
:102B230098E0FD7404120D98E0FC8E828F83124F9F
:102B3300707901121D65E9703D7403120B45120F84
:102B430019E9F5087409120D98E0702E900351E00D
:102B53006028742255086422602074425508644238
:102B630070147420120D98122DEC600E7420120D47
:102B730098122DE560047ACF8047E9A2E6504A74A3
:102B830020120D9812397124FD600B14600824FD86
:102B9300600424FD70297420120D98122DDE700F2D
:102BA3007420120D98A3124A6DA3E0640D601A7489
:102BB30003120B45121063E96401700D022DD27AE2
:102BC300D37B00121BC7022DD2EE242DF582E43FE6
:102BD300F5831231217003A3E069701F7509007832
:102BE30009120AC57809120AC5EE242F123F1EF9ED
:102BF300122DF21210097402120AEF7409120D98C1
:102C0300E07003022CA4122DF21210BD8A0A8B0B62
:102C1300EA450B7003022D427404120D98E0F88EFE
:102C2300828F83A3A3E028F8A3E03400F9E8240DFE
:102C3300122DD7F88A828B83A3A3A3E0686013E8DD
:102C43008A828B83A3A3A3123A1FE4F0A3F0A3F019
:102C5300A3F07904E9120D9812338DE02AF8A3E06A
:102C630034008882F583A3AA82AB831218AF8A0C3F
:102C73008B0D8C0E8D0F850A82850B83A3A3A3A3D3
:102C8300780C120A5D4003022DD2908041780C1219
:102C93000C3B850A82850B83A3A3A3A3780C120D97
:102CA3003E900369E064046008E064096003022D58
:102CB300D2E508A2E54003022D7CEE242F123F1E2D
:102CC300851882851983F0EE2430123F1EC0E0740C
:102CD30001120D98D0E0F0EE2431123F1EC0E074D3
:102CE30002120D98D0E0F07414120D98E064017094
:102CF3002D740E120D981253F4EE2413123F1E6816
:102D03007003A3E0697017740C120D98124F7212BE
:102D1300104BE9640270077414120D98E4F0EE246A
:102D230025F582E43FF5831209207404120B4D74D8
:102D330007120B45120E1D7404120AEF022DD290D6
:102D430003AEE064016003022CA47420120D9812F8
:102D53002DEC7009E508A2E65003022CA4741012AE
:102D63000D98E0F47003A3E0F46064EEFCEFFD74EF
:102D730003120B45120F258056A2E65052742012FF
:102D83000D98124E787016741A120D98E064027042
:102D93003E7403120B45790012102D8032742012F9
:102DA3000D98122DE57014741A120D98E0640470D6
:102DB3001E7403120B4512102180147420120D98F7
:102DC300122DDE700A79007403120B4512106F7412
:102DD300240248F4F582E4125AB5221254CEE06478
:102DE30003221254CEE0640722123CA7640622EEAB
:102DF300242BF582E43FF583124E88EE2413122E22
:102E03008D2274F4120577EAFEEBFF8C088D09908E
:102E13000B4CE0600F1256277003A3E06970051294
:102E23000E95804D7900124F65120EC58A828B83F1
:102E3300E58245836033A3A3A3A3A3A3E05418604F
:102E430028E508241C124855120924E50824131206
:102E53004855120924EE2418123F1EF9122E761239
:102E63000ED77404120AEF80087900122E76120E20
:102E73009B80258E828F83A3A3A3A3A3A3A3A3A332
:102E8300124E88EE240B122E8D22F582E43FF58339
:102E9300125C11FB22120AEF7F0402089B74F712E3
:102EA300057774F7120B6DEAFEEBFF900369E0649C
:102EB30003600DE064016008E064096003022F9B76
:102EC3008E828F83A3E06003022F717C007D007AE2
:102ED300027B0012186D1257258A828B831253F4DA
:102EE30090035A124ACB7953121CF379009003676B
:102EF300124F72120E2F900369E064096009900368
:102F030067124F721210B7851882851983740112E4
:102F13004A807942121CF39003697404F07401121D
:102F23000B45794A121CED7401120B4D7A5F7B033A
:102F3300121A5390035A124E847A037B0012186DAF
:102F430090035D124E847A047B0012186D90035433
:102F5300E0A2E35004D2F08002C2F0124A76795222
:102F6300121CF3900B98124F72120F0D80278E8252
:102F73008F83A3AE82AF83FC7D007A037B1012188C
:102F83006D8E828F83E0F9900367124F72120E2FBA
:102F9300900369E4F0120F4F7409023C8DC082C0A4
:102FA30083900338124FA2701F900369E0146009E5
:102FB30024FC600A14600C800F900340803490035B
:102FC3003C802F90033E802AE84960089003391221
:102FD3003396700C8A828B83A3E0F9120E23801D33
:102FE300900338124E8E64027005121087800E9083
:102FF30003D6124FA26006124A6D1207B502492F7B
:1030030074F412057774FB120B6D8A088B097A0F1F
:103013007B001218BB8A0A8B0BAE0AAF0BEE4F7004
:103023000302311C8E828F837402124A80795012FC
:103033001CED850882850983A3E060030230FF90BD
:103043000367E0F47003A3E0F46040900367E06477
:10305300FE7003A3E0F4603385188285198312316F
:10306300217003A3E0696023850882850983A37423
:10307300EA1233AD121CF37A5D7B03794B121CF316
:103083007A677B037950121CF38071851882851946
:10309300831256F8E8F0A3E91233AD121CED900346
:1030A3005A123897124ACB7A5D7B03794B121CED87
:1030B3007A5C7B0379E1121CED90036EE0C3940FFD
:1030C300501D90035CE0C0E07402120D98D0E0F054
:1030D3007404120D987401F004120B45121D05754A
:1030E3000A00780A120AC5780A120AC5900B88E00A
:1030F300F91235D71210097402120AEF8508828576
:10310300098312541AA3F09003697403F0EEFAEFE3
:10311300FB9003B4E0F91218C77405022E981256F7
:10312300FCE068221253F8E8FAE9FB2274F5120571
:103133007774D1120B6D8A088B098A828B83123DB7
:1031430093741C120B4D8A828B83A3A3A3A3A3A303
:10315300A3A312339CFAA3E0FB120F55741C120DA8
:1031630098E0702B850882850983A3A3A3A3A3A357
:10317300A3A3E0C3940B40178E828F83A3A3A3A3BF
:10318300A3A3A3A3E064027006123388F4600302CE
:103193003383900369E064027003023267E06406DC
:1031A3007003023267900338124FA26008123396FD
:1031B300700302329C900369E064086008E06404D1
:1031C3006003023383741E120D9812338DA3A3A3DD
:1031D300A3123D93900338E0F8496007124E9464BC
:1031E300026077900367E06E7003A3E06F600302F1
:1031F300338374016A60167423120D98AC82AD8315
:103203007A7B7B03121A4DE960030233837A007BD6
:10321300029003B4E0F9121A29EA4B4C4D60030201
:10322300338390036A120D81851882851983120DE9
:1032330075900370E0C0E07404120D98D0E0F07450
:1032430005120D987401F07406120D987402124A57
:1032530080120DEDE96003023380EEFAEFFB1210EA
:1032630081023383900338124FA2702D75080078C2
:1032730008120AC57808120AC5EE2410F582E43F45
:10328300F583124C7CA3A3A3A3A3A3A3A3A31239E3
:10329300751210097402120AEF8E828F831253F48F
:1032A3007407120D98E8F0A3E91238A11253F474CD
:1032B30009120D98124ADE12439EC0E0740B120DE0
:1032C30098D0E0F0124DAB12388B740F7808120DC2
:1032D3002F740C120D98E508F07420120D98E0C0BD
:1032E300E0740D120D98D0E0F07422120D98E0C036
:1032F300E0740E120D98D0E0F0741D120D98E0C02A
:10330300E07410120D98D0E0F0741E120D98E0C016
:10331300E0740F120D98D0E0F0EE2410123F1EC09F
:10332300E07411120D98D0E0F07421120D98E0C0F2
:10333300E07412120D98D0E0F0742E120D98E0C0D4
:10334300E07413120D98D0E0F07423120D98A98243
:10335300AA8389088A09750A007808120ABD7C08BD
:103363007D007417120D98AA82AB8312189D740303
:10337300120AEF7407120B45120E298003120DF384
:10338300742F025CF3124DAFE022E0FA8E828F833A
:10339300A3A322124E95640122E0F98A828B83A3B0
:1033A300A3A3A3A3A3A3A3A3E022F07A5A7B037945
:1033B30053221233B922F08518828519832274F2BD
:1033C30012057774F8120B6DEAFEEBFF8C0A8D0B76
:1033D300890C908028AC18AD197408120A1DF50DDC
:1033E300EEFCEFFDAA18AB19121A4DE97003750D27
:1033F300019003B5801AEEFCEFFDE508240BFAE417
:103403003509FB121A4DE97023E5082414124855B7
:103413001234456024E50DA2E040DB85088285096E
:1034230083E0650A7004A3E0650B70DD850882857F
:103433000983A3A3E0650C70D0AA08AB0974080242
:10344300260112388FE508450922C082C083900304
:10345300B502492C74F71205779003B5125C1180FD
:103463000C12524C123D9612194BEEFAEFFBEA4B3B
:1034730070EF9003B5E4F0A3F0023C907F070208DD
:103483009B74F1120577EAFEEBFF890A8C088D091C
:103493008E828F83E08C828D831245DFAE82AF8371
:1034A300E01246C91248B7C41246C912354EE05459
:1034B300038C828D831248B5A2E2E4338C828D8320
:1034C3001248B4131313541F1246C91248B3A2E788
:1034D300E4338C828D83A3A3A3A312354E8E0C8F6A
:1034E3000D750E00780C120ABD7C087D00E50824DA
:1034F30007FAE43509FB12189D7403120AEFEE2450
:1035030008FE50010F8E0C8F0D780C120ABD7C0340
:103513007D00E508240FFAE43509FB12189D7403B6
:10352300120AEFE50AC3940F40158E828F83A3A37B
:10353300A3E0C0E0E5082412124855D0E08008E576
:10354300082412124855E4F002347FA3A31245DF86
:103553000EAF832274F51205778A088B098A828B52
:1035630083A3AE82AF83E0F9120E478E828F83E08E
:1035730064EB6024850882850983A3E064E1601815
:10358300850882850983A3E064F1600C8508828540
:103593000983A3E0641A7009850882850983A3E47B
:1035A300F0900B98124F72120F0D750A01780A12E0
:1035B3000AC5850882850983A3E0F5087808120AFD
:1035C300C579001235D71210097402120AEF120FCF
:1035D30061025CF6900367124E8890035D122E938E
:1035E300221235EBE4F0A322E0F8A3E0C8123FED8A
:1035F30038F583221235EB7401F0A3E422F07CFB4F
:103603007D0E8E828F83122E9322EAF0A3EBF002BB
:10361300492F74F61205779003B8E0701B7C00798C
:10362300017A007B00120F91EA4B600C8A828B8334
:10363300124FA26003120F01024A71C082C0837944
:1036430004120F8BE9F89023C5E493C398401079D3
:10365300FF120F8BE9F89023C2E493C398500479C7
:10366300018002790002492F74F01205778A088BD2
:1036730009890B750C008A828B83A3A3A3A3A3A33D
:10368300A3A3E0F9120F978A0E8B0FAE0EAF0F753F
:103693000A01EE4F6003023748850882850983A338
:1036A300A3A3A3A3A3124E84850882850983A3A39E
:1036B300A3A3A3A3A31243E8124F72120F7F8A0C92
:1036C3008B0DAE0CAF0DEE4F70030238778E828FE9
:1036D30083A3A3A3A3E4F0A3F0E508240CFAE43541
:1036E30009FB8A828B83E0C0E012387FD0E0F012BE
:1036F3001051EE240D125568E508125718350912BA
:1037030053F2EE240F124AC5750C01EE2406124340
:1037130092547FF0A3E054FC12293A54046003024C
:1037230037BF900BA0E0F5087509007407780812FD
:103733000C618E828F83A3A3A3A3A3A3E04508F008
:10374300A3E04509F08E828F83A3A3A3A312388934
:1037530074077808120D2FE5085407F508E50B6088
:103763006B8E828F83A3A3A3A3A3A3A3A3A3740298
:103773001248B8123B70600B900355123897A3A3FD
:10378300124ACBE5087003023846EE2406125C6247
:10379300547FFCA3E054FCFDE50824FFF508E43462
:1037A300FFF50974077808120C61EC4508F8ED453C
:1037B30009F98A828B83124ACB0238468E828F8321
:1037C300A3A3A3A3A3A3E04480023747E50870059E
:1037D300750A00806E8E828F83A3A3A3A3A3A3E0A5
:1037E3005420600C1218B5EA547F7900245F8019C5
:1037F3008E828F83A3A3A3A3A3A3E05410601A1202
:1038030018B5EA540F7900240A5001098E828F8378
:10381300A3A3A3A3F0A3E9800D8E828F83A3A3A305
:10382300A37401F0A3E41238A17404123AF3121A38
:1038330029EA4B4C4D700C7A207B009003B4E0F9DD
:103843001218FDE50CA2E0502E8E828F83A3A3A352
:10385300A31251C4F9EEFAEFFB120F85E9601812B7
:103863004F9B6009123CB6124F7212194BEEFAEFDE
:10387300FB12194B750A00A90A0248F7EE240CF54E
:1038830082E43FF58322A3A312388F22E0F508A335
:10389300E0F509221253F88E828F83A3A322124AE2
:1038A3008BA3A3A32274F412057774F7120B6D7E16
:1038B30000120F97EA4B70030239648A828B83A349
:1038C300A3A3A3A3A3A3A3A3E06406600302396491
:1038D3008A828B83A3A3A3A3A3A3A3E0FF8A828BE0
:1038E30083125C96E0C0E07408120D98D0E0123C9D
:1038F300A0124EA6124ACB120FA9EF54086060859E
:103903001882851983124E847A007B00120F798BFB
:103913000BEA450B7049125CED121D237C007D0000
:103923007A007B0080258E828F83123971F47003B5
:10393300A3E0F4602A900367123975121D1DE96430
:103943001A601C7C007D00EEFAEFFB120F798A0AE5
:103953008B0BAE0AAF0BEE4F70CC7900121D297E94
:1039630001EEF97409022E98F582E43FF583123CC7
:10397300A7221251D2122E9322C082C083EA4B7027
:10398300059003B980068A828B83A3A3123BA460AC
:10399300208A828B83A3A3A3A3A3A3A3E0540860D9
:1039A300E5EC4D6010123BAA7003A3E06D70D78065
:1039B300047A007B0002492F74F2120577EAFEEBCA
:1039C300FF890A8C088D097A117B00121945EA4B8D
:1039D30060408A828B83A3A3A3A3A3A3A3A3A3E48B
:1039E300123C95A3E50A123A1FA3A3125BEB8A824A
:1039F3008B83A3A3A3A3E4F0A3123CB0123A318AAE
:103A0300828B83EEF0A3EF123FE4E4F0123A18F056
:103A1300A3F0022604A3125CB4A3A322123A232226
:103A2300123A2722F08A828B83A3A3A3A322A3F0B3
:103A3300125CD63BF583E4F02274F4120577EAFEB8
:103A4300EBFF89088C0A8D0BEE4F7003023AEE747C
:103A530001650870127901120F8BE9F89023C7E40E
:103A630093C3985022801674046508701479041265
:103A73000F8BE9F89023C5E493C398500A7911801A
:103A83006C7402650870648E828F83A3A3A3A3A3BF
:103A9300A3A3A3A3E50812462D1253FF8E828F839F
:103AA300A3A3E4F0A3F09003B9124FA2601A80031A
:103AB300E0F8A3E0F988828983A3A3123BA4888258
:103AC3008983A3A370EA80039003B9EEF0A3EF12F6
:103AD3003AF3121A29EA4B4C4D700C7A207B009072
:103AE30003B4E0F91218FD7900800279C1022E9B1C
:103AF300F07A207B009003B4E0F922C082C083E90E
:103B0300F879009003B9801D8A828B83A3A3A3A3B2
:103B1300A3A3A3A3A3E068600574FF687001098AE7
:103B2300828B83A3A3123BA470DE02492F74F71286
:103B33000577EA4B70059003B980068A828B83A3CD
:103B4300A3123BA460208A828B83A3A3A3A3A3A372
:103B5300A3A3A3E06970E4EC60108A828B83E01274
:103B63003B7070D780047A007B00023C901235ECE6
:103B7300E0540422C082C0839003B980068A828BFA
:103B830083A3A3123BA460128A828B83A3A3A3A360
:103B9300A3A3A3A3E06970E580047A007B00024934
:103BA3002F122E93EA4B228A828B83123CA76C221C
:103BB30074F21205778A0A8B0B8C0C8D0D75080035
:103BC300750900EA450B60309003B980068E828F39
:103BD30083A3A3123D96EE4F601EAC0CAD0DEEFA1F
:103BE300EFFB850A82850B831207B5E9640170DD5B
:103BF300EEF8EFF988088909AA08AB0902260474CC
:103C0300F71205779003B91253F47C007D00800D01
:103C1300E8FCE9FD88828983A3A31253F4E8496091
:103C230030EA687002EB6970E79003B9124F72E8EB
:103C33006A7002E96B88828983A3A370081253F424
:103C43009003B980091253F48C828D83A3A3124A83
:103C5300CB803A74F7120577EAFEEBFFEE4F60284C
:103C6300120FA3123CC212194B8E828F83124F7212
:103C730012194B124F9B6009123CB6124F72121964
:103C83004BEEFAEFFB12194B8003120AEF7F01028E
:103C9300089B123C9922123A27A3A3A322125CB4D5
:103CA300123CA722124B8DF5838882E022123C99A5
:103CB300A3A322123CBA22EE123FED3FF583228EDC
:103CC300828F83125C401254F0122E9122C082C064
:103CD30083EAFCEBFDEC4D6017EC24FBF582ED343D
:103CE300FF124FA07007123D2AE0F460071218C1BB
:103CF300790580309003B4E0C0E0123D2AD0E0F0B3
:103D03009023B9E493F97ABB7B031218F7E96401B2
:103D130070107A007B209003B4E0F91218FD79004B
:103D23008002790402492FEC24FFF582ED34FFF57C
:103D3300832274F4120577A2AFE433F508C2AF907F
:103D430003BB123D96EE4F603AEE24FBF582EF344F
:103D5300FF124FA07A007B209003B46007E0F912B2
:103D630018FD8005E0F9121903E4F50AF50B780A4A
:103D7300120AC1EEFCEFFD7ABB7B031218F1740249
:103D8300120AEFE508A2E092AFEEFAEFFB022E9BD8
:103D9300A3A3A3E0FEA3E0FF2274F212057774FC51
:103DA300120B6DEAFEEBFF750AFE750BFF120F6730
:103DB300E960057911023F11EE2415123F1E6035AB
:103DC300900BBAE0C43354E0F8E0333354FC48C0FA
:103DD300E01245F0D0E0125CA6FAA3E0FB79FF12F3
:103DE3001D898B09EA4509600C750AFF124C6B1299
:103DF3004A98D2E0F08E828F83124F7012104BE9F3
:103E03006006EE2412125C73EE2413123F1E700D33
:103E13009023C0E493C0E01251BAD0E0F08E828FB9
:103E230083E0A2E7500454038019EE2414123F1ECA
:103E33007012900346E0C0E0125C4ED0E0F09003B5
:103E430046E004F0123F1B64017016900B3BE060E8
:103E53000D900351E0700A8E828F83E07003125C31
:103E6300708E828F83E064017013EE240B12396B22
:103E730064027009EE240F123F1E4440F0AC18ADEB
:103E830019EEFAEFFB120FCD8A088B0974FE650A4F
:103E9300700374FFF4700D8E828F83A3A3E0F50A81
:103EA300A3E0F50BEA450960618E828F83E0C0E0F1
:103EB3007401120D98D0E0F07402120D981257128B
:103EC3007401120B3D880C890D780C120AC1123F44
:103ED30016120924EE240E123F1EF50C780C120A5A
:103EE300C590035A1209247407120D98E0F9AC0A1D
:103EF300AD0B120FC77407120AEFE9FE74106E7050
:103F03000BAA08AB0912194B80027E10EEF9740458
:103F1300022601EE124C7322EE2411F582E43FF5E2
:103F230083E022C082C08374DC120B6D8A828B8390
:103F3300A3A3A3A31253F4740E120D98125CACA3A3
:103F4300A31253F4740C120D98E8F0A3E9123FE4A2
:103F5300E0C0E0741A120D98D0E0F0EA1253E73B88
:103F63001253F27420120D98124ACBEA2415124907
:103F7300FEC0E07408120D98D0E0F0EA241CF5822C
:103F8300E43B1253F27412120D98124ACBEA241135
:103F93001249FEC0E07409120D98D0E0F0EA241231
:103FA3001249FEC0E07407120D98D0E01233B574C5
:103FB300FFF07401120D9874FFF07402120D9874DF
:103FC300FFF09080711209207404120B4D740712D4
:103FD3000B45120E1D7404120AEF79007424022695
:103FE30056F0EA123FED3BF58322240DF582E422DD
:103FF30074F412057774EF120B6DEAFEEBFF8C0875
:104003008D09890B750A107A217B001219458518D1
:104013008285198312556E851882851983124FA2E2
:1040230070030240F67C217D007900851882851992
:1040330083E0FA1218A9900367124F7285188285DC
:104043001983125C402409F582E43812556C741DFF
:10405300120D981253F4740F120D98E8F0A3E9129D
:1040630040FD125C7C1240FD125C9D74021243F20F
:10407300F8A3124A6DE508F0A3E5091240FD125CAE
:1040830045E50BF0741F120D98E0FA851882851927
:1040930083125C85EA1240FD1254F0F58312571225
:1040A3007420120D981253F47406120D98124ACB11
:1040B3007408120D98EAF07422120D981254C8C0B5
:1040C30082C083740C120D98AC82AD83D083D082EE
:1040D3007403120A1DF9AA18AB19120F6DE96401D2
:1040E3007005750A00800C851882851983124F723A
:1040F30012194BA90A7411022E981243F6F8A3E081
:10410300C82274EE120577EAFEEBFF8C088D098E48
:10411300828F83A37408124AD1E060088E828F8352
:10412300A37410F0EE2417123F1E60098E828F8352
:10413300A3E02408F0EE2415123F1E60088E828F40
:1041430083A3E004F08E828F83A3A3A3A3A3A3E09E
:1041530060198E828F83A3A3A3A3A3A3A3E0C33376
:104163002402F88E828F83A3E028F0123F1B6005A0
:10417300750B0E8003750B008E828F83A3E01243B1
:104183009C28250B8C828D83F0123F1B60119003BA
:1041930052E0F9121D5F850882850983E029F085C5
:1041A3000882850983E0C394754009750800750981
:1041B3000002438BE0FA7B001219458A088B09EA57
:1041C3004509700302438B8E828F83E0FA90035775
:1041D3001243B07402780C120C61EA450CFAAB0D71
:1041E300EE2412123F1E5403F50C750D007406786D
:1041F3000C120C61EA450CFCEBFDEE2415123F1E7C
:104203006004780180027800EE2416FAE43FFBE8AC
:10421300F9ED49FD123F1BF50C7409780C120C6182
:10422300ED450DFD8A828B831243B0740B780C121B
:104233000C61ED450DFD1245E61243B0740C780C8C
:10424300120C61ED450DFD8E828F83A3A3A3A3A35F
:10425300A31243B0740A780C120C61ECF8ED450D0F
:10426300F9E8850882850983F0E9A3F0EE240212B8
:1042730043928508828509831243D4F0EE2404F81F
:10428300E43FF988828983124869A31243D4A3A324
:10429300F0EE24131243B7F0EE24141243B7A3F045
:1042A300750A088A828B83E06015EE2418124E7E0D
:1042B300E5082408FAE43509FB121A53750A10EECF
:1042C3002417123F1E601BEE241A124E7E850A0C21
:1042D300E508250CFAE43509FB121A537408250A7C
:1042E300F50A8E828F83A3A3A3A3A3A3E06059EE51
:1042F3002407F510E43FF511851082F583E0C0E053
:1043030012484ED0E01243C4E0C0E012484ED0E061
:104313001243C4A31243A3120ABD851082851183DD
:10432300E025E0FCE433FD850A0CE508250CFAE4FE
:104333003509FB12189D7403120AEF85108285114B
:1043430083E0C333250AF50AEE2415123F1E6008E5
:10435300C0E012484ED0E0F0124DAB1243A3120A54
:10436300BD12439DFC7D00850B0A8E828F83A3E0E3
:10437300F8E50828F8E43509F9E8250AFAE439FBF1
:1043830012189D7403120AEFAA08AB0902463DF8FE
:10439300E43FF988828983E022F8EE123CBBE022F5
:1043A300E0F50CA3E0F50D750E00780C22E0F50C9A
:1043B300750D0022F582E43FF5831243DDA3A3A329
:1043C30022F0050A8E828F83A3A3A3A3A3A3A3A38F
:1043D30022A3A31259601243DD2212486DA3A32224
:1043E3007403022E98A3E0F98508828509832212BB
:1043F30043F6221233B9E02274EE1205778A0A8B50
:104403000BECFEEDFF750F01E9C394085003024561
:10441300788E828F83E9F012461B120FD9E960036D
:10442300750F001248768E828F831248BFEE1253A7
:10443300E73F1248A9C0E0EE2411F582E43FF5837B
:10444300D0E01248A1C0E0EE2412F582E43FF583E8
:10445300D0E01245DF740812462DA3A3A3E0601831
:10446300E50A2408F8E4350BF9EE2413124AC58E45
:10447300828F83A3E02408F08E828F83A3A3A3A358
:10448300A3A3A3A3E0601B8E828F83A385820885E9
:1044930083091248891245F0E8F0A3E9124C8A24F3
:1044A30008F08E828F83A3A3A3A3A3E0600F12451A
:1044B300FE8E828F83A3A3A3A3A3124634EE2419F3
:1044C300125C73EE241B125C73A3F0EE2418123FEC
:1044D3001E70030245681245FEFAEE2419F582E4C4
:1044E3003FF583EA12463412460EF8124C8EE81258
:1044F3004634E8C39AEE50682419123F1EF8900719
:10450300B7E493C398500575110C8008EE24191273
:104513003F1EF5118E828F83A3E0F8E50A28F50C80
:10452300E4350BF50D750E00780C120ABDAC11ECD9
:104533002CFCE433FD7A277B0912189D7403120ABD
:10454300EFEE241BF582E43FF5837427F0A374098F
:10455300F0E511C333F8850882850983E0288004D8
:10456300124A9EE4F08E828F83A3E0F88E828F83BB
:10457300E0C398500479008061A3E0FAE50A28F8C3
:10458300E4350BF9124D9FE8F0A3E91248B8C39A3A
:10459300C0E01245E6D0E0124A86603CEE2417F8EC
:1045A300E43FF9880889098882F583E024F2F0EE74
:1045B300241D124392240EFAA3E03400FB8882895F
:1045C3008312556E900352E0F9121D5FE9F88508D6
:1045D30082850983E0C398F0A90F805EF08E828FF5
:1045E30083A322EE2417F582E43FF583221245F4D8
:1045F30022EE2415F582E43FF583228E828F83A376
:10460300858208858309E012460E22F8E50A28F51B
:1046130082E4350BF583E0228A828B83E0FAA3E000
:10462300F8E4C8F9EA28E439FB221245DFA3A3A37F
:1046330022124C9804F022120AEF7F0A02089B749C
:10464300F41205778A088B09EA1246D0F0EA1313AD
:10465300543F1246C9A3A3A3F0EAC413131246D0CE
:10466300A3A3F0EB1246C21246DA7409780A120DBC
:104673002F1246C01246D9740A780A120D2FE50A82
:104683005401C0E0EC2418F582E43DF583D0E01238
:1046930046DF740B780A120D2F1246C0A31246D9B7
:1046A300740C780A120D2F1246C0A3A3A3A3A3A3CD
:1046B300A3A3F0740D7808120D2F022A36E50A54CD
:1046C300018C828D8322540F8C828D832254038C20
:1046D300828D83A3A322A3A3A3A3A3A3F08A0A8BFC
:1046E3000B22C082C08379008A828B83A3A3A3A3F6
:1046F300A3A3E0900351600EE070228A828B83A310
:10470300A3E070198016E060148A828B83124F69CC
:1047130090035AE06A7003A3E06B60010902492F1A
:1047230074F01205778A0A8B0B890C8C088D091299
:10473300461B120FD91248768508828509831248D1
:10474300BF1253E535091248A9C0E0E50824111248
:104753004855D0E01248A1C0E0E50824121248559C
:10476300D0E01248947408124894A3A3A3A3A3A36C
:10477300E06017E50A2408F8E4350BF9E50824138B
:1047830012485D124894E02408F085088285098365
:10479300A3A3A3A3A3A3A3A3E0601785088285090A
:1047A30083A3124885E508241512485D1248B824EE
:1047B30008F0850882850983A3A3A3A3A3E0601956
:1047C300850882850983A3AE82AF831246098508D3
:1047D300828509831248B304F0AA08AB09120FDFDC
:1047E300E9F50D7059850882850983A3A3A3A3A3C3
:1047F300A31248697016E0FAE50A2AF8E4350BF9C2
:10480300124846124AC9E50CC39A8026124885E825
:10481300240EF8500109124846124AC9900352E087
:10482300F9121D5F8E828F83E0F8E50CC39824F2A2
:10483300C399C0E0E5082417124855D0E0F0A90D4C
:104843000248F7E5081254EA350922850A0CE508FF
:10485300250CF582E43509F58322F582E43509F563
:1048630083E8F0A3E92212486D22E08508828509D6
:1048730083A322850A82850B83A3A31248D5E0F97B
:10488300EA22AE82AF83E0F8E50A28F8E4350BF9B3
:104893002212489822F0850882850983A3221248B0
:1048A300E8A3A3A3E022F583E81248E1A3A3E0224F
:1048B300A3A3A3A3A3F08E828F83E022A3A3A3A326
:1048C300A3A3A3A3A31248E11248D5A3A3E0F9EA43
:1048D300F822E0FA850A82850B83A3A3A322F0A31F
:1048E300E91248E822F0850A82850B83A3A3A3A3D8
:1048F30022120AEF7F0802089BC082C0837AC97B19
:104903000379E2121CED7AC97B038020C082C08345
:1049130090035A8014C082C08390035D800BC082D1
:10492300C083794A121CED8003124F72D083D08268
:10493300020AA174F61205779003D1E0FE04F0EEAB
:10494300F9120F978B09EA450970EDEE60EAF90257
:104953004A7174F2120577EAFEEBFF8C088D098920
:104963000A1210BD740E120D98E0F8740F120D9810
:10497300E0F9EA4B7012E9701BA90AAC08AD09EE25
:10498300FAEFFB1210DB8070E96017E870068A8289
:104993008B83E4F0740169705FE89003D87026E4B8
:1049A3008020E87053EA24021249FE850A0825088C
:1049B300F8E4340013E813F0703E8A828B83A3A3D8
:1049C3007401F08033E004F0900BA1E0F89003D879
:1049D300E0C3984023E4F090035DE06E7003A3E02E
:1049E3006F7015EEFAEFFB7901120E417A017B002D
:1049F3009003B4E0F9121A23022604F582E43BF58E
:104A030083E02274F412057774016A4B700E7A0105
:104A13007B009003B4E0F91218FD8037900B9812D5
:104A2300556EEA4B60218A088B09E4F50AF50B7889
:104A330008120AB97A017B009003B4E0F9121A173D
:104A43007404120AEF800C7A017B009003B4E0F93E
:104A5300121A23022E9BC082C083900B9A02360D3A
:104A6300C082C083900B9C02360D1254CF227F026A
:104A730002089BA2F0E433851882851983F0AA18F3
:104A8300AB1922124A8BE022F08E828F83A3A3A359
:104A9300A3A3A322A3F01245F4E0222418F582E491
:104AA3003FF583223509F583E022125CD63BF5837B
:104AB30012573C22850882850983A3A31253F8EE7B
:104AC3002418F582E43FF583E8F0A3E9F022F0EE41
:104AD3002416F582E43FF58322A3A3E8F0A3E9F0CB
:104AE300EE2274F4120577EAFEEBFF7A007B049062
:104AF30003B4E0F9121A23124B7B124ACB900369D9
:104B03007409F0120FEB8A088B09AC08AD09125136
:104B1300BA124F72121A4DE9640170597A0F7B0071
:104B23001218BB8A088B09EA450960498A828B837C
:104B33007402124B85F988828983A3E0FC888289F9
:104B430083A3A3E0FBEC8A82850983A3A312556F99
:104B530088828983A3A3A3E08A82850983124A9763
:104B6300FAA3E0FB794A121CF3AA08AB099003B439
:104B7300E0F91218C7022E9B90033A1253F8900BD8
:104B83009C22F0124DA3124B8D22E0F8A3E0227475
:104B9300F412057774FD120B6D8A088B09740112E8
:104BA3000D987402124A8012103F8A0A8B0BAE0AC8
:104BB300AF0BEE4F7003024C5A125CC2700888822E
:104BC3008983A37420F0850882850983A3A3A3A303
:104BD300A3E06401700988828983A3E0D2E6F085AB
:104BE3000882850983A3A3A3A3A3A3E06401700A96
:104BF30088828983A3E0D2E78003124C5F125CBAF8
:104C03007016850882850983A3A3124FA26006EE5E
:104C13002416125730124AB7850882850983A3A345
:104C2300A3A3A3A3A3E064017003125C58850882C5
:104C3300850983124F7212104BE96004124C6BF01A
:104C430012572D120FEB124C83124C7A124ADCFAD4
:104C5300EFFB120DDB800279100243E3EE2413F520
:104C630082E43FF583740122124C72E0440422EE85
:104C73001257183FF58322F8A3E0F98E828F83221F
:104C8300124C8EEAF0A3EB124C9822EE241AF58212
:104C9300E43FF58322F0850882850983E02274F5D9
:104CA30012057774F3120B6D890AEAFEEBFF7508A0
:104CB300007509007C0D7D007900AA18AB19121844
:104CC300A9124D9F124E71741F58600C7AD37B004A
:104CD300121BC77900024D9CE8A2E55008740C1220
:104CE3000D987401F0E8A2E75008740B120D987444
:104CF30001F0E8A2E6740A5008120D987401F080DE
:104D030008120D98E0640170138E828F83A3A3A30E
:104D1300A3A3A3A3E06032EE241380128E828F83B9
:104D2300A3A3A3A3A3A3A3A3E0601EEE2415F5826C
:104D3300E43FF5831234456010AC08AD09740212E8
:104D43000D98AA82AB83121A53124DAB124EA112C5
:104D53004ACB740A120D98E064017034124F651245
:104D6300104BE970321253EB90035DE0687003A3BC
:104D7300E0697023E50845096016120FEBEAFCEBC6
:104D8300FD7402120D98AA82AB83121A4DE96007D3
:104D9300AA18AB19120E3BA90A025CF1124DA32209
:104DA300EE1254EA3FF58322124DAF22EE240BF5A7
:104DB30082E43FF5832274F712057774D2120B6DE8
:104DC300EAFEEBFF8E828F83124E8EA2E040030237
:104DD3004E6C8E828F83124AB3A3A3A3A3A3A3E033
:104DE30054FE12596B740D120B4D1254F7120FE54A
:104DF300E97076742A120D98124E78706C7C0D7DD2
:104E0300007900AA18AB191218A97416120D98127A
:104E13004EA1124ACB742A120D98124E71A2E5507C
:104E230008740B120D987401F0E8A2E75008740A95
:104E3300120D987401F0E8A2E65004742080027405
:104E430022120D98124E847402120D98AA82AB831B
:104E5300121A538E828F83A3A3E0C0E0740C120D49
:104E630098D0E0124A80120E35742E023C8D1254F3
:104E7300CCA3E0F822123CA7640422F582E43FF5B8
:104E830083124E8822E0FCA3E0FD22E0F8124E9448
:104E930022A3E0C82406F582E438F583E022E01279
:104EA3004EA622F8A3E0F985188285198322E9F832
:104EB3007900740468600A740A6860057403687092
:104EC3000109020AA174F61205778A828B83742082
:104ED300F0A3A37401F0120DE18A088B09AE08AFA9
:104EE30009EE4F60168E828F837401F09003A7E062
:104EF300700912572D120FEB125565EEFAEFFB02F4
:104F03004A71C082C0839003BD7401F0E9A2E350EB
:104F1300037403F0E9A2E15004E0D2E2F002492F66
:104F230074F612057779007C008A088B09780812D9
:104F33000855F8FF07544F524F524F524F524F4AA2
:104F43004F4E4F544F4F4F7C0480060C0C80027C15
:104F5300089003BDE05C6003098003EC6001090273
:104F63004A718E828F83A3A3A3A3A3A3A3A3A31294
:104F73002E932274F61205778A828B83E07012A334
:104F8300124FA2600C8A828B83124F71121E1980FA
:104F9300047A007B00024A71EE123FED3FF5831263
:104FA30053F8E84922C082C0837C00EC125035706C
:104FB30003A3E06B70119023BCE493C0E012502A6A
:104FC300D0E0F079C580510CECC3940340DD7C0044
:104FD300EC75F003A4F8A9F074C128F582740312E8
:104FE3002DDA64FE7003A3E0F4600F0CECC39403AA
:104FF30040DE7C00EC12501E7015EC1257741255F3
:105003006E9023BCE49388828983F0790080090C35
:10501300ECC3940340DE79C702492F75F003A4F86B
:10502300A9F012502AE02274C028F582740339F5DE
:10503300832275F003A4F8A9F074C128F5827403E0
:10504300125AB56A2274F512057774F3120B6D8A3E
:10505300088B09ECFEEDFF750A12EA450970057924
:105063000002514690035AE065087004A3E0650905
:105073007019120FEBEAFCEBFDEEFAEFFB121A4D7F
:10508300E97005750A018003750A00851882851980
:1050930083E4F004120D98E508F0A3E509124A80B1
:1050A300121DADE960297403120D98AA82AB831215
:1050B3001E31E964017018750A017403120D98AC6E
:1050C30082AD83EEFAEFFB121A4DE9701E801F7456
:1050D30012650A70199003A6E064027011EEFCEFEA
:1050E300FDAA08AB09120DBDE96003750A00EEFCC9
:1050F300EFFDAA08AB091210C3E9F8740A6870053A
:10510300750A01803C74A0687037EEFCEFFDAA08B5
:10511300AB091210CF7E008023EE75F017A4F8A917
:10512300F0125ACB7004A3E06509700F125BFA12F8
:105133001E31E970061258C41210B10E12514940C3
:10514300D8A90A025CF19023BAE493F8EEC398223B
:1051530074F7120577EAFEEBFF8E828F83A3A3A376
:10516300A3A3A3A3A3E060131245F0122E8312108E
:105173005DE964017005124DAB802D8E828F83A390
:10518300A3A3A3A3A3A3E060291251BA1251C4FAA3
:10519300A3E0FB12105DE9640170178E828F83A375
:1051A300A3A3A3A3A3A3A3A3124F7212105779011E
:1051B30080027900023C90EE2413F582E43FF583EC
:1051C300221251D2A3A3A3A3A3A3A3A3A3E022E0E8
:1051D300FCA3E0FD8E828F832274F212057774FDA7
:1051E300120B6D8A088B09ECFEEDFF890B750A0122
:1051F3007401120D987404124A8012103FEA4B6036
:10520300457411120D98E0601AEA2417F582E43B05
:10521300F583E412570B8A828B83E0D2E7F01252B4
:105223004CE4F0124AAD7403125401EE8882898370
:10523300A3A3F0EF88828983A3A3123A18125BEB2E
:10524300120DDBE9F50A0225FDEA2414F582E43B9D
:10525300F5832274F4120577EAFEEBFF890A124DF7
:105263009F1254C8A3E0F50BEE2417123F1E6404EB
:1052730060097AD37B00121BC7806FE50B1209A963
:1052830001000E8E52008B52750A00124D9FA3E04F
:10529300F9EE2409F508E43FF50988828983A3A37D
:1052A300E0FA88828983A3A3A3E0F8E4C8F9EA2893
:1052B300FCE439FDA90B850882850983124F72121C
:1052C3000E53850882850983124F7212104BE960D1
:1052D30019123F1BC394024011124DAB1256347086
:1052E30003A3E0696004A90A80027900022E9B747B
:1052F300EE12057774F5120B6D8A0A8B0B890C8CF1
:105303000E8D0F7E01EE120D98740AF0741D120DAE
:1053130098E0F50DE9700FE50DC333240AC0E0EE04
:10532300120D98D0E0F0AA18AB1912103F8A088B1F
:1053330009EA450970030253DEEA1253E7350912FD
:1053430054D574091254E1450D125421AC0EAD0F1E
:10535300EEFAEFFB121A53EE2408FE50010FE50C90
:1053630070247C00741E120D981253F48012EC12F8
:105373005620E82AFAE93BFB125407A30EAF830C2D
:10538300ECC3950D40E8E50824171248557401F065
:10539300120FEBE508241AF582E4350912556C74F3
:1053A30003120B4DAA0AAB0B121E2BE9601BE50877
:1053B30024161248557401F07403120B3DE50824BA
:1053C30018F582E43509124AC985088285098312D2
:1053D30053FDAA08AB09120DDBE9FEEEF9740B02CB
:1053E300463AE508125CD722EE240BF582E43FF53A
:1053F300831253F822124B8DF922A3A3E50AF0A3DB
:10540300E50BF0228A828B8312541B1254218A8269
:105413008B8312541AF022A3E08E828F8322F0A38F
:10542300AE82AF832225E0F8E433F92274F012054B
:10543300778A0A8B0B890C8C088D09900AAA124F64
:10544300A2607B7410120D98E0F50D125428E82425
:105453000EFAE439FB1218BB8A0E8B0FAE0EAF0F98
:10546300EE4F605A8E828F8374D4F0A3A3E50AF0C3
:10547300A3E50B12462DE50CF0AC08AD09EE2405AF
:10548300FAE43FFB121A53123CB6E50DF074111205
:105493000D981257047808120ABDAC0DEC2CFCE4ED
:1054A30033FDEE240EFAE43FFB12189D7403120A37
:1054B300EFEEFAEFFB900AAA1254C81207B502489E
:1054C300F78E828F831254CC22E0F8A3E0F5838811
:1054D3008222F583E0FEA3E0FF8E828F8322F0A376
:1054E300E50CC43354E022241DF582E422241FF585
:1054F30082E43822EA241E1249FEF9EA241FF582C7
:10550300E43B122E912274F6120577EAFEEBFF902C
:1055130003BE801388828983E06E7003A3E06F600B
:105523003688828983A3A3124FA270E87A047B0092
:105533001219458A088B09A808A909E8496018883F
:105543008289831257129003BE12555DA3A312558D
:105553006E9003BE124ACB024A71122E938882893F
:105563008322EE241AF582E43FF583EAF0A3EBF0FD
:105573002274F41205777E009003BE80070E8882A2
:105583008983A3A3124FA270F4EE12562012194579
:105593008A088B09EA4509607E7F009003BE80215B
:1055A30088828983124E84EF125620E5082AF582F9
:1055B300E5093BF583ECF0A3EDF00F88828983A323
:1055C300A3124FA270DA9003AF1256347003A3E014
:1055D300697808701C120AC1EEF50A780A120AC526
:1055E3007C7B7D0379009003AF124F7212107B8096
:1055F3001A120AC1EEF50A780A120AC57C7B7D03EA
:1056030079009003AF124F721210757403120AEFF0
:10561300AA08AB0912194B120DF3022E9B25E0FACF
:10562300E433FB228E828F83A3A3A3A3A3A3A3A309
:10563300A31253F890035AE06822C082C0838012F9
:105643008A828B83A3A31253F49003BE124ACB1214
:10565300194B9003BE123BA470E602492F74F51256
:105663000577900367123D969003D21256F8124ABB
:10567300CB7AD27B037950121CF39003D2125704D6
:1056830080151257D265087004A3E06509600612FD
:1056930058CC1210B1050A1256ED5018E50A1258EB
:1056A300B87003A3E06F70DA74BD28F58274071233
:1056B3005BE880E19003D2123D96900AAC124FA2B0
:1056C30060257A067B001218BBEA4B601A8A828B2C
:1056D3008374D5F0A3A3E412571E0412570B900A48
:1056E300AC1254C81207B5025CF69023BAE493F8DF
:1056F300E50AC398221256FC22124B8DF9900367D8
:105703002212388F750A0022123A2312571222EE00
:10571300F0A3EFF022240FF582E422125CB4A3A3DA
:10572300A322EE2402FAE43FFB22EE2417F582E4DF
:105733003FF5837401F022F583124B8DF98882893A
:10574300832274F71205777E0080071258C4121063
:10575300B10E12514940F47E00EE12577474FEF0FC
:10576300A304125965E4F00EEEC3940340EB023C2C
:105773009075F003A4F8A9F074C028F8740339F9FC
:1057830088828983A32274F71205777F0080010F33
:105793009023BAE493F8EFC398502DEF75F017A454
:1057A300F8A9F0125AA66A7003A3E06B70E11257CE
:1057B300D26C7003A3E06D600A74FF6C700374FF16
:1057C3006D70CC1258CC80047A007B00023C90129E
:1057D30057D62274BD28F5827407125AB52274F67F
:1057E3001205777CFF7DFF7AFE7BFF12109FEA4B49
:1057F300703C7508008032E50875F017A4F8A9F02D
:1058030074C228F5827407122DDA6005125A9B7050
:105813001674B328FE740739FF8E828F83124F727A
:10582300120EDDEEFAEFFB050812583440C9024AA6
:10583300719023BAE493F8E508C3982274F412052F
:10584300778A088B09ECFEEDFF800B1210B1EEFC9A
:10585300EFFDAA08AB0912109FEA4B70EE022E9BD4
:1058630074F7120577EAFEEBFFEE4F601B7C177DA2
:105873000079001218A98E828F8374FEF0A304129C
:1058830038A1A314F0A304F0023C9074F712057737
:10589300EAFEEBFF7508008014E5081258B87003A0
:1058A300A3E06F60061258CC1210B10508125834E9
:1058B30040E7023C9075F017A4F8A9F01257D66E92
:1058C30022EE75F017A4F8A9F074B328FA74073917
:1058D300FB2274F612057712109F8A088B09A80819
:1058E300A909E8496009E8240DFAE439FB80047A40
:1058F300007B00024A7174F41205778A0A8B0BEC61
:10590300FEEDFF7508007509008034E509125BF3AD
:10591300121E31E96027E50975F017A4F8A9F01202
:105923005AC57004A3E0650B700375080AEEFCEF1B
:10593300FD125BFA121A4DE960034308A0050990B2
:1059430023BAE493F8E509C3985004E50860BC0260
:105953002A36125960A3A3A3A3A3A3A322125965B2
:10596300A322F08882898322125965122E9322740E
:10597300F31205778A088B09ECFEEDFF750C007BAB
:10598300007C01740D120D98E0F50AA3E0F50B807D
:10599300101218B5E50CF5F0EA84ABF0750C007C39
:1059A300007D0080010D9023BAE493F8EDC3985075
:1059B30049125C037003A3E0F460EA125ACB70044B
:1059C300A3E0650960DF125AA66E7003A3E06F605F
:1059D300D4125AC57004A3E0650B60C9125A9B60C8
:1059E300C4C3940750BFEC050C70BAE50CC39B40CD
:1059F300B474B328F582740780787A0080010A9022
:105A030023C1E493F8EAC3985070EA75F016A4F83A
:105A1300A9F0125AD164FE7003A3E0F460E0125AB5
:105A2300D165087004A3E0650960D3125AD16E7082
:105A330003A3E06F60C8125AD1650A7004A3E0653E
:105A43000B60BB74EE28F5827405122DDA60AFC3C8
:105A5300940750AA125ABA640160A3E06402609EDC
:105A6300EC050C7099E50CC39B409374E528F58213
:105A7300740539F583124F728019E50C6011EB70D0
:105A83000E7401650C60030259947B0102599F7ADD
:105A9300FE7BFF7F0502089B74C128F58274071201
:105AA3005AB522125AAA2274B328F5827407125ADD
:105AB300B52239F583E02274E928F5827405125A78
:105AC300B522125AAA650A22125AAA65082274E557
:105AD30028F5827405125AB52274F51205778A08DF
:105AE3008B09ECFEEDFF750A008002050A1256EDE4
:105AF3005022EEFCEFFDE50A125BF3121A4DE9604A
:105B0300EAE50A75F017A4F8A9F074B328F58274CE
:105B130007125BE8025CF6E9F87907C3940D4004C9
:105B230079018019E8C3940740047903800FE8C31F
:105B33009403400419198005E870027900020AA150
